ARM GAS  C:\Users\dmarsch\AppData\Local\Temp\ccviHmsi.s 			page 1


   1              		.syntax unified
   2              		.cpu cortex-m3
   3              		.fpu softvfp
   4              		.eabi_attribute 20, 1
   5              		.eabi_attribute 21, 1
   6              		.eabi_attribute 23, 3
   7              		.eabi_attribute 24, 1
   8              		.eabi_attribute 25, 1
   9              		.eabi_attribute 26, 1
  10              		.eabi_attribute 30, 1
  11              		.eabi_attribute 34, 1
  12              		.eabi_attribute 18, 4
  13              		.thumb
  14              		.syntax unified
  15              		.file	"CLR_STR_ISR.c"
  16              		.text
  17              	.Ltext0:
  18              		.cfi_sections	.debug_frame
  19              		.section	.text.CLR_STR_ISR_Interrupt,"ax",%progbits
  20              		.align	2
  21              		.global	CLR_STR_ISR_Interrupt
  22              		.thumb
  23              		.thumb_func
  24              		.type	CLR_STR_ISR_Interrupt, %function
  25              	CLR_STR_ISR_Interrupt:
  26              	.LFB3:
  27              		.file 1 "Generated_Source\\PSoC5\\CLR_STR_ISR.c"
   1:Generated_Source\PSoC5/CLR_STR_ISR.c **** /*******************************************************************************
   2:Generated_Source\PSoC5/CLR_STR_ISR.c **** * File Name: CLR_STR_ISR.c  
   3:Generated_Source\PSoC5/CLR_STR_ISR.c **** * Version 1.70
   4:Generated_Source\PSoC5/CLR_STR_ISR.c **** *
   5:Generated_Source\PSoC5/CLR_STR_ISR.c **** *  Description:
   6:Generated_Source\PSoC5/CLR_STR_ISR.c **** *   API for controlling the state of an interrupt.
   7:Generated_Source\PSoC5/CLR_STR_ISR.c **** *
   8:Generated_Source\PSoC5/CLR_STR_ISR.c **** *
   9:Generated_Source\PSoC5/CLR_STR_ISR.c **** *  Note:
  10:Generated_Source\PSoC5/CLR_STR_ISR.c **** *
  11:Generated_Source\PSoC5/CLR_STR_ISR.c **** ********************************************************************************
  12:Generated_Source\PSoC5/CLR_STR_ISR.c **** * Copyright 2008-2015, Cypress Semiconductor Corporation.  All rights reserved.
  13:Generated_Source\PSoC5/CLR_STR_ISR.c **** * You may use this file only in accordance with the license, terms, conditions, 
  14:Generated_Source\PSoC5/CLR_STR_ISR.c **** * disclaimers, and limitations in the end user license agreement accompanying 
  15:Generated_Source\PSoC5/CLR_STR_ISR.c **** * the software package with which this file was provided.
  16:Generated_Source\PSoC5/CLR_STR_ISR.c **** *******************************************************************************/
  17:Generated_Source\PSoC5/CLR_STR_ISR.c **** 
  18:Generated_Source\PSoC5/CLR_STR_ISR.c **** 
  19:Generated_Source\PSoC5/CLR_STR_ISR.c **** #include <cydevice_trm.h>
  20:Generated_Source\PSoC5/CLR_STR_ISR.c **** #include <CyLib.h>
  21:Generated_Source\PSoC5/CLR_STR_ISR.c **** #include <CLR_STR_ISR.h>
  22:Generated_Source\PSoC5/CLR_STR_ISR.c **** #include "cyapicallbacks.h"
  23:Generated_Source\PSoC5/CLR_STR_ISR.c **** 
  24:Generated_Source\PSoC5/CLR_STR_ISR.c **** #if !defined(CLR_STR_ISR__REMOVED) /* Check for removal by optimization */
  25:Generated_Source\PSoC5/CLR_STR_ISR.c **** 
  26:Generated_Source\PSoC5/CLR_STR_ISR.c **** /*******************************************************************************
  27:Generated_Source\PSoC5/CLR_STR_ISR.c **** *  Place your includes, defines and code here 
  28:Generated_Source\PSoC5/CLR_STR_ISR.c **** ********************************************************************************/
  29:Generated_Source\PSoC5/CLR_STR_ISR.c **** /* `#START CLR_STR_ISR_intc` */
  30:Generated_Source\PSoC5/CLR_STR_ISR.c **** #include "SW1.h"
ARM GAS  C:\Users\dmarsch\AppData\Local\Temp\ccviHmsi.s 			page 2


  31:Generated_Source\PSoC5/CLR_STR_ISR.c **** #include "CLR_STR_ISR.h"
  32:Generated_Source\PSoC5/CLR_STR_ISR.c **** volatile int flag;
  33:Generated_Source\PSoC5/CLR_STR_ISR.c **** volatile int value;
  34:Generated_Source\PSoC5/CLR_STR_ISR.c **** /* `#END` */
  35:Generated_Source\PSoC5/CLR_STR_ISR.c **** 
  36:Generated_Source\PSoC5/CLR_STR_ISR.c **** #ifndef CYINT_IRQ_BASE
  37:Generated_Source\PSoC5/CLR_STR_ISR.c **** #define CYINT_IRQ_BASE      16
  38:Generated_Source\PSoC5/CLR_STR_ISR.c **** #endif /* CYINT_IRQ_BASE */
  39:Generated_Source\PSoC5/CLR_STR_ISR.c **** #ifndef CYINT_VECT_TABLE
  40:Generated_Source\PSoC5/CLR_STR_ISR.c **** #define CYINT_VECT_TABLE    ((cyisraddress **) CYREG_NVIC_VECT_OFFSET)
  41:Generated_Source\PSoC5/CLR_STR_ISR.c **** #endif /* CYINT_VECT_TABLE */
  42:Generated_Source\PSoC5/CLR_STR_ISR.c **** 
  43:Generated_Source\PSoC5/CLR_STR_ISR.c **** /* Declared in startup, used to set unused interrupts to. */
  44:Generated_Source\PSoC5/CLR_STR_ISR.c **** CY_ISR_PROTO(IntDefaultHandler);
  45:Generated_Source\PSoC5/CLR_STR_ISR.c **** 
  46:Generated_Source\PSoC5/CLR_STR_ISR.c **** 
  47:Generated_Source\PSoC5/CLR_STR_ISR.c **** /*******************************************************************************
  48:Generated_Source\PSoC5/CLR_STR_ISR.c **** * Function Name: CLR_STR_ISR_Start
  49:Generated_Source\PSoC5/CLR_STR_ISR.c **** ********************************************************************************
  50:Generated_Source\PSoC5/CLR_STR_ISR.c **** *
  51:Generated_Source\PSoC5/CLR_STR_ISR.c **** * Summary:
  52:Generated_Source\PSoC5/CLR_STR_ISR.c **** *  Set up the interrupt and enable it. This function disables the interrupt, 
  53:Generated_Source\PSoC5/CLR_STR_ISR.c **** *  sets the default interrupt vector, sets the priority from the value in the
  54:Generated_Source\PSoC5/CLR_STR_ISR.c **** *  Design Wide Resources Interrupt Editor, then enables the interrupt to the 
  55:Generated_Source\PSoC5/CLR_STR_ISR.c **** *  interrupt controller.
  56:Generated_Source\PSoC5/CLR_STR_ISR.c **** *
  57:Generated_Source\PSoC5/CLR_STR_ISR.c **** * Parameters:  
  58:Generated_Source\PSoC5/CLR_STR_ISR.c **** *   None
  59:Generated_Source\PSoC5/CLR_STR_ISR.c **** *
  60:Generated_Source\PSoC5/CLR_STR_ISR.c **** * Return:
  61:Generated_Source\PSoC5/CLR_STR_ISR.c **** *   None
  62:Generated_Source\PSoC5/CLR_STR_ISR.c **** *
  63:Generated_Source\PSoC5/CLR_STR_ISR.c **** *******************************************************************************/
  64:Generated_Source\PSoC5/CLR_STR_ISR.c **** void CLR_STR_ISR_Start(void)
  65:Generated_Source\PSoC5/CLR_STR_ISR.c **** {
  66:Generated_Source\PSoC5/CLR_STR_ISR.c ****     /* For all we know the interrupt is active. */
  67:Generated_Source\PSoC5/CLR_STR_ISR.c ****     CLR_STR_ISR_Disable();
  68:Generated_Source\PSoC5/CLR_STR_ISR.c **** 
  69:Generated_Source\PSoC5/CLR_STR_ISR.c ****     /* Set the ISR to point to the CLR_STR_ISR Interrupt. */
  70:Generated_Source\PSoC5/CLR_STR_ISR.c ****     CLR_STR_ISR_SetVector(&CLR_STR_ISR_Interrupt);
  71:Generated_Source\PSoC5/CLR_STR_ISR.c **** 
  72:Generated_Source\PSoC5/CLR_STR_ISR.c ****     /* Set the priority. */
  73:Generated_Source\PSoC5/CLR_STR_ISR.c ****     CLR_STR_ISR_SetPriority((uint8)CLR_STR_ISR_INTC_PRIOR_NUMBER);
  74:Generated_Source\PSoC5/CLR_STR_ISR.c **** 
  75:Generated_Source\PSoC5/CLR_STR_ISR.c ****     /* Enable it. */
  76:Generated_Source\PSoC5/CLR_STR_ISR.c ****     CLR_STR_ISR_Enable();
  77:Generated_Source\PSoC5/CLR_STR_ISR.c **** }
  78:Generated_Source\PSoC5/CLR_STR_ISR.c **** 
  79:Generated_Source\PSoC5/CLR_STR_ISR.c **** 
  80:Generated_Source\PSoC5/CLR_STR_ISR.c **** /*******************************************************************************
  81:Generated_Source\PSoC5/CLR_STR_ISR.c **** * Function Name: CLR_STR_ISR_StartEx
  82:Generated_Source\PSoC5/CLR_STR_ISR.c **** ********************************************************************************
  83:Generated_Source\PSoC5/CLR_STR_ISR.c **** *
  84:Generated_Source\PSoC5/CLR_STR_ISR.c **** * Summary:
  85:Generated_Source\PSoC5/CLR_STR_ISR.c **** *  Sets up the interrupt and enables it. This function disables the interrupt,
  86:Generated_Source\PSoC5/CLR_STR_ISR.c **** *  sets the interrupt vector based on the address passed in, sets the priority 
  87:Generated_Source\PSoC5/CLR_STR_ISR.c **** *  from the value in the Design Wide Resources Interrupt Editor, then enables 
ARM GAS  C:\Users\dmarsch\AppData\Local\Temp\ccviHmsi.s 			page 3


  88:Generated_Source\PSoC5/CLR_STR_ISR.c **** *  the interrupt to the interrupt controller.
  89:Generated_Source\PSoC5/CLR_STR_ISR.c **** *  
  90:Generated_Source\PSoC5/CLR_STR_ISR.c **** *  When defining ISR functions, the CY_ISR and CY_ISR_PROTO macros should be 
  91:Generated_Source\PSoC5/CLR_STR_ISR.c **** *  used to provide consistent definition across compilers:
  92:Generated_Source\PSoC5/CLR_STR_ISR.c **** *  
  93:Generated_Source\PSoC5/CLR_STR_ISR.c **** *  Function definition example:
  94:Generated_Source\PSoC5/CLR_STR_ISR.c **** *   CY_ISR(MyISR)
  95:Generated_Source\PSoC5/CLR_STR_ISR.c **** *   {
  96:Generated_Source\PSoC5/CLR_STR_ISR.c **** *   }
  97:Generated_Source\PSoC5/CLR_STR_ISR.c **** *   Function prototype example:
  98:Generated_Source\PSoC5/CLR_STR_ISR.c **** *   CY_ISR_PROTO(MyISR);
  99:Generated_Source\PSoC5/CLR_STR_ISR.c **** *
 100:Generated_Source\PSoC5/CLR_STR_ISR.c **** * Parameters:  
 101:Generated_Source\PSoC5/CLR_STR_ISR.c **** *   address: Address of the ISR to set in the interrupt vector table.
 102:Generated_Source\PSoC5/CLR_STR_ISR.c **** *
 103:Generated_Source\PSoC5/CLR_STR_ISR.c **** * Return:
 104:Generated_Source\PSoC5/CLR_STR_ISR.c **** *   None
 105:Generated_Source\PSoC5/CLR_STR_ISR.c **** *
 106:Generated_Source\PSoC5/CLR_STR_ISR.c **** *******************************************************************************/
 107:Generated_Source\PSoC5/CLR_STR_ISR.c **** void CLR_STR_ISR_StartEx(cyisraddress address)
 108:Generated_Source\PSoC5/CLR_STR_ISR.c **** {
 109:Generated_Source\PSoC5/CLR_STR_ISR.c ****     /* For all we know the interrupt is active. */
 110:Generated_Source\PSoC5/CLR_STR_ISR.c ****     CLR_STR_ISR_Disable();
 111:Generated_Source\PSoC5/CLR_STR_ISR.c **** 
 112:Generated_Source\PSoC5/CLR_STR_ISR.c ****     /* Set the ISR to point to the CLR_STR_ISR Interrupt. */
 113:Generated_Source\PSoC5/CLR_STR_ISR.c ****     CLR_STR_ISR_SetVector(address);
 114:Generated_Source\PSoC5/CLR_STR_ISR.c **** 
 115:Generated_Source\PSoC5/CLR_STR_ISR.c ****     /* Set the priority. */
 116:Generated_Source\PSoC5/CLR_STR_ISR.c ****     CLR_STR_ISR_SetPriority((uint8)CLR_STR_ISR_INTC_PRIOR_NUMBER);
 117:Generated_Source\PSoC5/CLR_STR_ISR.c **** 
 118:Generated_Source\PSoC5/CLR_STR_ISR.c ****     /* Enable it. */
 119:Generated_Source\PSoC5/CLR_STR_ISR.c ****     CLR_STR_ISR_Enable();
 120:Generated_Source\PSoC5/CLR_STR_ISR.c **** }
 121:Generated_Source\PSoC5/CLR_STR_ISR.c **** 
 122:Generated_Source\PSoC5/CLR_STR_ISR.c **** 
 123:Generated_Source\PSoC5/CLR_STR_ISR.c **** /*******************************************************************************
 124:Generated_Source\PSoC5/CLR_STR_ISR.c **** * Function Name: CLR_STR_ISR_Stop
 125:Generated_Source\PSoC5/CLR_STR_ISR.c **** ********************************************************************************
 126:Generated_Source\PSoC5/CLR_STR_ISR.c **** *
 127:Generated_Source\PSoC5/CLR_STR_ISR.c **** * Summary:
 128:Generated_Source\PSoC5/CLR_STR_ISR.c **** *   Disables and removes the interrupt.
 129:Generated_Source\PSoC5/CLR_STR_ISR.c **** *
 130:Generated_Source\PSoC5/CLR_STR_ISR.c **** * Parameters:  
 131:Generated_Source\PSoC5/CLR_STR_ISR.c **** *   None
 132:Generated_Source\PSoC5/CLR_STR_ISR.c **** *
 133:Generated_Source\PSoC5/CLR_STR_ISR.c **** * Return:
 134:Generated_Source\PSoC5/CLR_STR_ISR.c **** *   None
 135:Generated_Source\PSoC5/CLR_STR_ISR.c **** *
 136:Generated_Source\PSoC5/CLR_STR_ISR.c **** *******************************************************************************/
 137:Generated_Source\PSoC5/CLR_STR_ISR.c **** void CLR_STR_ISR_Stop(void)
 138:Generated_Source\PSoC5/CLR_STR_ISR.c **** {
 139:Generated_Source\PSoC5/CLR_STR_ISR.c ****     /* Disable this interrupt. */
 140:Generated_Source\PSoC5/CLR_STR_ISR.c ****     CLR_STR_ISR_Disable();
 141:Generated_Source\PSoC5/CLR_STR_ISR.c **** 
 142:Generated_Source\PSoC5/CLR_STR_ISR.c ****     /* Set the ISR to point to the passive one. */
 143:Generated_Source\PSoC5/CLR_STR_ISR.c ****     CLR_STR_ISR_SetVector(&IntDefaultHandler);
 144:Generated_Source\PSoC5/CLR_STR_ISR.c **** }
ARM GAS  C:\Users\dmarsch\AppData\Local\Temp\ccviHmsi.s 			page 4


 145:Generated_Source\PSoC5/CLR_STR_ISR.c **** 
 146:Generated_Source\PSoC5/CLR_STR_ISR.c **** 
 147:Generated_Source\PSoC5/CLR_STR_ISR.c **** /*******************************************************************************
 148:Generated_Source\PSoC5/CLR_STR_ISR.c **** * Function Name: CLR_STR_ISR_Interrupt
 149:Generated_Source\PSoC5/CLR_STR_ISR.c **** ********************************************************************************
 150:Generated_Source\PSoC5/CLR_STR_ISR.c **** *
 151:Generated_Source\PSoC5/CLR_STR_ISR.c **** * Summary:
 152:Generated_Source\PSoC5/CLR_STR_ISR.c **** *   The default Interrupt Service Routine for CLR_STR_ISR.
 153:Generated_Source\PSoC5/CLR_STR_ISR.c **** *
 154:Generated_Source\PSoC5/CLR_STR_ISR.c **** *   Add custom code between the coments to keep the next version of this file
 155:Generated_Source\PSoC5/CLR_STR_ISR.c **** *   from over writting your code.
 156:Generated_Source\PSoC5/CLR_STR_ISR.c **** *
 157:Generated_Source\PSoC5/CLR_STR_ISR.c **** * Parameters:  
 158:Generated_Source\PSoC5/CLR_STR_ISR.c **** *
 159:Generated_Source\PSoC5/CLR_STR_ISR.c **** * Return:
 160:Generated_Source\PSoC5/CLR_STR_ISR.c **** *   None
 161:Generated_Source\PSoC5/CLR_STR_ISR.c **** *
 162:Generated_Source\PSoC5/CLR_STR_ISR.c **** *******************************************************************************/
 163:Generated_Source\PSoC5/CLR_STR_ISR.c **** CY_ISR(CLR_STR_ISR_Interrupt)
 164:Generated_Source\PSoC5/CLR_STR_ISR.c **** {
  28              		.loc 1 164 0
  29              		.cfi_startproc
  30              		@ args = 0, pretend = 0, frame = 0
  31              		@ frame_needed = 0, uses_anonymous_args = 0
  32 0000 08B5     		push	{r3, lr}
  33              		.cfi_def_cfa_offset 8
  34              		.cfi_offset 3, -8
  35              		.cfi_offset 14, -4
 165:Generated_Source\PSoC5/CLR_STR_ISR.c ****     #ifdef CLR_STR_ISR_INTERRUPT_INTERRUPT_CALLBACK
 166:Generated_Source\PSoC5/CLR_STR_ISR.c ****         CLR_STR_ISR_Interrupt_InterruptCallback();
 167:Generated_Source\PSoC5/CLR_STR_ISR.c ****     #endif /* CLR_STR_ISR_INTERRUPT_INTERRUPT_CALLBACK */ 
 168:Generated_Source\PSoC5/CLR_STR_ISR.c **** 
 169:Generated_Source\PSoC5/CLR_STR_ISR.c ****     /*  Place your Interrupt code here. */
 170:Generated_Source\PSoC5/CLR_STR_ISR.c ****     /* `#START CLR_STR_ISR_Interrupt` */
 171:Generated_Source\PSoC5/CLR_STR_ISR.c ****     value = SW1_Read();
  36              		.loc 1 171 0
  37 0002 FFF7FEFF 		bl	SW1_Read
  38              	.LVL0:
  39 0006 054B     		ldr	r3, .L4
  40 0008 1860     		str	r0, [r3]
 172:Generated_Source\PSoC5/CLR_STR_ISR.c ****     if (value == 1) flag = 1;
  41              		.loc 1 172 0
  42 000a 1B68     		ldr	r3, [r3]
  43 000c 012B     		cmp	r3, #1
  44 000e 02D1     		bne	.L2
  45              		.loc 1 172 0 is_stmt 0 discriminator 1
  46 0010 0122     		movs	r2, #1
  47 0012 034B     		ldr	r3, .L4+4
  48 0014 1A60     		str	r2, [r3]
  49              	.L2:
 173:Generated_Source\PSoC5/CLR_STR_ISR.c ****     //CLR_STR_ISR_ClearPending();
 174:Generated_Source\PSoC5/CLR_STR_ISR.c ****     SW1_ClearInterrupt();
  50              		.loc 1 174 0 is_stmt 1
  51 0016 FFF7FEFF 		bl	SW1_ClearInterrupt
  52              	.LVL1:
  53 001a 08BD     		pop	{r3, pc}
  54              	.L5:
ARM GAS  C:\Users\dmarsch\AppData\Local\Temp\ccviHmsi.s 			page 5


  55              		.align	2
  56              	.L4:
  57 001c 00000000 		.word	value
  58 0020 00000000 		.word	flag
  59              		.cfi_endproc
  60              	.LFE3:
  61              		.size	CLR_STR_ISR_Interrupt, .-CLR_STR_ISR_Interrupt
  62              		.section	.text.CLR_STR_ISR_SetVector,"ax",%progbits
  63              		.align	2
  64              		.global	CLR_STR_ISR_SetVector
  65              		.thumb
  66              		.thumb_func
  67              		.type	CLR_STR_ISR_SetVector, %function
  68              	CLR_STR_ISR_SetVector:
  69              	.LFB4:
 175:Generated_Source\PSoC5/CLR_STR_ISR.c ****     /* `#END` */
 176:Generated_Source\PSoC5/CLR_STR_ISR.c **** }
 177:Generated_Source\PSoC5/CLR_STR_ISR.c **** 
 178:Generated_Source\PSoC5/CLR_STR_ISR.c **** 
 179:Generated_Source\PSoC5/CLR_STR_ISR.c **** /*******************************************************************************
 180:Generated_Source\PSoC5/CLR_STR_ISR.c **** * Function Name: CLR_STR_ISR_SetVector
 181:Generated_Source\PSoC5/CLR_STR_ISR.c **** ********************************************************************************
 182:Generated_Source\PSoC5/CLR_STR_ISR.c **** *
 183:Generated_Source\PSoC5/CLR_STR_ISR.c **** * Summary:
 184:Generated_Source\PSoC5/CLR_STR_ISR.c **** *   Change the ISR vector for the Interrupt. Note calling CLR_STR_ISR_Start
 185:Generated_Source\PSoC5/CLR_STR_ISR.c **** *   will override any effect this method would have had. To set the vector 
 186:Generated_Source\PSoC5/CLR_STR_ISR.c **** *   before the component has been started use CLR_STR_ISR_StartEx instead.
 187:Generated_Source\PSoC5/CLR_STR_ISR.c **** * 
 188:Generated_Source\PSoC5/CLR_STR_ISR.c **** *   When defining ISR functions, the CY_ISR and CY_ISR_PROTO macros should be 
 189:Generated_Source\PSoC5/CLR_STR_ISR.c **** *   used to provide consistent definition across compilers:
 190:Generated_Source\PSoC5/CLR_STR_ISR.c **** *
 191:Generated_Source\PSoC5/CLR_STR_ISR.c **** *   Function definition example:
 192:Generated_Source\PSoC5/CLR_STR_ISR.c **** *   CY_ISR(MyISR)
 193:Generated_Source\PSoC5/CLR_STR_ISR.c **** *   {
 194:Generated_Source\PSoC5/CLR_STR_ISR.c **** *   }
 195:Generated_Source\PSoC5/CLR_STR_ISR.c **** *
 196:Generated_Source\PSoC5/CLR_STR_ISR.c **** *   Function prototype example:
 197:Generated_Source\PSoC5/CLR_STR_ISR.c **** *     CY_ISR_PROTO(MyISR);
 198:Generated_Source\PSoC5/CLR_STR_ISR.c **** *
 199:Generated_Source\PSoC5/CLR_STR_ISR.c **** * Parameters:
 200:Generated_Source\PSoC5/CLR_STR_ISR.c **** *   address: Address of the ISR to set in the interrupt vector table.
 201:Generated_Source\PSoC5/CLR_STR_ISR.c **** *
 202:Generated_Source\PSoC5/CLR_STR_ISR.c **** * Return:
 203:Generated_Source\PSoC5/CLR_STR_ISR.c **** *   None
 204:Generated_Source\PSoC5/CLR_STR_ISR.c **** *
 205:Generated_Source\PSoC5/CLR_STR_ISR.c **** *******************************************************************************/
 206:Generated_Source\PSoC5/CLR_STR_ISR.c **** void CLR_STR_ISR_SetVector(cyisraddress address)
 207:Generated_Source\PSoC5/CLR_STR_ISR.c **** {
  70              		.loc 1 207 0
  71              		.cfi_startproc
  72              		@ args = 0, pretend = 0, frame = 0
  73              		@ frame_needed = 0, uses_anonymous_args = 0
  74              		@ link register save eliminated.
  75              	.LVL2:
 208:Generated_Source\PSoC5/CLR_STR_ISR.c ****     cyisraddress * ramVectorTable;
 209:Generated_Source\PSoC5/CLR_STR_ISR.c **** 
 210:Generated_Source\PSoC5/CLR_STR_ISR.c ****     ramVectorTable = (cyisraddress *) *CYINT_VECT_TABLE;
ARM GAS  C:\Users\dmarsch\AppData\Local\Temp\ccviHmsi.s 			page 6


  76              		.loc 1 210 0
  77 0000 014B     		ldr	r3, .L7
  78 0002 1B68     		ldr	r3, [r3]
  79              	.LVL3:
 211:Generated_Source\PSoC5/CLR_STR_ISR.c **** 
 212:Generated_Source\PSoC5/CLR_STR_ISR.c ****     ramVectorTable[CYINT_IRQ_BASE + (uint32)CLR_STR_ISR__INTC_NUMBER] = address;
  80              		.loc 1 212 0
  81 0004 1865     		str	r0, [r3, #80]
  82 0006 7047     		bx	lr
  83              	.L8:
  84              		.align	2
  85              	.L7:
  86 0008 08ED00E0 		.word	-536810232
  87              		.cfi_endproc
  88              	.LFE4:
  89              		.size	CLR_STR_ISR_SetVector, .-CLR_STR_ISR_SetVector
  90              		.section	.text.CLR_STR_ISR_GetVector,"ax",%progbits
  91              		.align	2
  92              		.global	CLR_STR_ISR_GetVector
  93              		.thumb
  94              		.thumb_func
  95              		.type	CLR_STR_ISR_GetVector, %function
  96              	CLR_STR_ISR_GetVector:
  97              	.LFB5:
 213:Generated_Source\PSoC5/CLR_STR_ISR.c **** }
 214:Generated_Source\PSoC5/CLR_STR_ISR.c **** 
 215:Generated_Source\PSoC5/CLR_STR_ISR.c **** 
 216:Generated_Source\PSoC5/CLR_STR_ISR.c **** /*******************************************************************************
 217:Generated_Source\PSoC5/CLR_STR_ISR.c **** * Function Name: CLR_STR_ISR_GetVector
 218:Generated_Source\PSoC5/CLR_STR_ISR.c **** ********************************************************************************
 219:Generated_Source\PSoC5/CLR_STR_ISR.c **** *
 220:Generated_Source\PSoC5/CLR_STR_ISR.c **** * Summary:
 221:Generated_Source\PSoC5/CLR_STR_ISR.c **** *   Gets the "address" of the current ISR vector for the Interrupt.
 222:Generated_Source\PSoC5/CLR_STR_ISR.c **** *
 223:Generated_Source\PSoC5/CLR_STR_ISR.c **** * Parameters:
 224:Generated_Source\PSoC5/CLR_STR_ISR.c **** *   None
 225:Generated_Source\PSoC5/CLR_STR_ISR.c **** *
 226:Generated_Source\PSoC5/CLR_STR_ISR.c **** * Return:
 227:Generated_Source\PSoC5/CLR_STR_ISR.c **** *   Address of the ISR in the interrupt vector table.
 228:Generated_Source\PSoC5/CLR_STR_ISR.c **** *
 229:Generated_Source\PSoC5/CLR_STR_ISR.c **** *******************************************************************************/
 230:Generated_Source\PSoC5/CLR_STR_ISR.c **** cyisraddress CLR_STR_ISR_GetVector(void)
 231:Generated_Source\PSoC5/CLR_STR_ISR.c **** {
  98              		.loc 1 231 0
  99              		.cfi_startproc
 100              		@ args = 0, pretend = 0, frame = 0
 101              		@ frame_needed = 0, uses_anonymous_args = 0
 102              		@ link register save eliminated.
 232:Generated_Source\PSoC5/CLR_STR_ISR.c ****     cyisraddress * ramVectorTable;
 233:Generated_Source\PSoC5/CLR_STR_ISR.c **** 
 234:Generated_Source\PSoC5/CLR_STR_ISR.c ****     ramVectorTable = (cyisraddress *) *CYINT_VECT_TABLE;
 103              		.loc 1 234 0
 104 0000 014B     		ldr	r3, .L10
 105 0002 1B68     		ldr	r3, [r3]
 106              	.LVL4:
 235:Generated_Source\PSoC5/CLR_STR_ISR.c **** 
 236:Generated_Source\PSoC5/CLR_STR_ISR.c ****     return ramVectorTable[CYINT_IRQ_BASE + (uint32)CLR_STR_ISR__INTC_NUMBER];
ARM GAS  C:\Users\dmarsch\AppData\Local\Temp\ccviHmsi.s 			page 7


 237:Generated_Source\PSoC5/CLR_STR_ISR.c **** }
 107              		.loc 1 237 0
 108 0004 186D     		ldr	r0, [r3, #80]
 109 0006 7047     		bx	lr
 110              	.L11:
 111              		.align	2
 112              	.L10:
 113 0008 08ED00E0 		.word	-536810232
 114              		.cfi_endproc
 115              	.LFE5:
 116              		.size	CLR_STR_ISR_GetVector, .-CLR_STR_ISR_GetVector
 117              		.section	.text.CLR_STR_ISR_SetPriority,"ax",%progbits
 118              		.align	2
 119              		.global	CLR_STR_ISR_SetPriority
 120              		.thumb
 121              		.thumb_func
 122              		.type	CLR_STR_ISR_SetPriority, %function
 123              	CLR_STR_ISR_SetPriority:
 124              	.LFB6:
 238:Generated_Source\PSoC5/CLR_STR_ISR.c **** 
 239:Generated_Source\PSoC5/CLR_STR_ISR.c **** 
 240:Generated_Source\PSoC5/CLR_STR_ISR.c **** /*******************************************************************************
 241:Generated_Source\PSoC5/CLR_STR_ISR.c **** * Function Name: CLR_STR_ISR_SetPriority
 242:Generated_Source\PSoC5/CLR_STR_ISR.c **** ********************************************************************************
 243:Generated_Source\PSoC5/CLR_STR_ISR.c **** *
 244:Generated_Source\PSoC5/CLR_STR_ISR.c **** * Summary:
 245:Generated_Source\PSoC5/CLR_STR_ISR.c **** *   Sets the Priority of the Interrupt. 
 246:Generated_Source\PSoC5/CLR_STR_ISR.c **** *
 247:Generated_Source\PSoC5/CLR_STR_ISR.c **** *   Note calling CLR_STR_ISR_Start or CLR_STR_ISR_StartEx will 
 248:Generated_Source\PSoC5/CLR_STR_ISR.c **** *   override any effect this API would have had. This API should only be called
 249:Generated_Source\PSoC5/CLR_STR_ISR.c **** *   after CLR_STR_ISR_Start or CLR_STR_ISR_StartEx has been called. 
 250:Generated_Source\PSoC5/CLR_STR_ISR.c **** *   To set the initial priority for the component, use the Design-Wide Resources
 251:Generated_Source\PSoC5/CLR_STR_ISR.c **** *   Interrupt Editor.
 252:Generated_Source\PSoC5/CLR_STR_ISR.c **** *
 253:Generated_Source\PSoC5/CLR_STR_ISR.c **** *   Note This API has no effect on Non-maskable interrupt NMI).
 254:Generated_Source\PSoC5/CLR_STR_ISR.c **** *
 255:Generated_Source\PSoC5/CLR_STR_ISR.c **** * Parameters:
 256:Generated_Source\PSoC5/CLR_STR_ISR.c **** *   priority: Priority of the interrupt, 0 being the highest priority
 257:Generated_Source\PSoC5/CLR_STR_ISR.c **** *             PSoC 3 and PSoC 5LP: Priority is from 0 to 7.
 258:Generated_Source\PSoC5/CLR_STR_ISR.c **** *             PSoC 4: Priority is from 0 to 3.
 259:Generated_Source\PSoC5/CLR_STR_ISR.c **** *
 260:Generated_Source\PSoC5/CLR_STR_ISR.c **** * Return:
 261:Generated_Source\PSoC5/CLR_STR_ISR.c **** *   None
 262:Generated_Source\PSoC5/CLR_STR_ISR.c **** *
 263:Generated_Source\PSoC5/CLR_STR_ISR.c **** *******************************************************************************/
 264:Generated_Source\PSoC5/CLR_STR_ISR.c **** void CLR_STR_ISR_SetPriority(uint8 priority)
 265:Generated_Source\PSoC5/CLR_STR_ISR.c **** {
 125              		.loc 1 265 0
 126              		.cfi_startproc
 127              		@ args = 0, pretend = 0, frame = 0
 128              		@ frame_needed = 0, uses_anonymous_args = 0
 129              		@ link register save eliminated.
 130              	.LVL5:
 266:Generated_Source\PSoC5/CLR_STR_ISR.c ****     *CLR_STR_ISR_INTC_PRIOR = priority << 5;
 131              		.loc 1 266 0
 132 0000 4001     		lsls	r0, r0, #5
 133              	.LVL6:
ARM GAS  C:\Users\dmarsch\AppData\Local\Temp\ccviHmsi.s 			page 8


 134 0002 C0B2     		uxtb	r0, r0
 135 0004 014B     		ldr	r3, .L13
 136 0006 1870     		strb	r0, [r3]
 137 0008 7047     		bx	lr
 138              	.L14:
 139 000a 00BF     		.align	2
 140              	.L13:
 141 000c 04E400E0 		.word	-536812540
 142              		.cfi_endproc
 143              	.LFE6:
 144              		.size	CLR_STR_ISR_SetPriority, .-CLR_STR_ISR_SetPriority
 145              		.section	.text.CLR_STR_ISR_GetPriority,"ax",%progbits
 146              		.align	2
 147              		.global	CLR_STR_ISR_GetPriority
 148              		.thumb
 149              		.thumb_func
 150              		.type	CLR_STR_ISR_GetPriority, %function
 151              	CLR_STR_ISR_GetPriority:
 152              	.LFB7:
 267:Generated_Source\PSoC5/CLR_STR_ISR.c **** }
 268:Generated_Source\PSoC5/CLR_STR_ISR.c **** 
 269:Generated_Source\PSoC5/CLR_STR_ISR.c **** 
 270:Generated_Source\PSoC5/CLR_STR_ISR.c **** /*******************************************************************************
 271:Generated_Source\PSoC5/CLR_STR_ISR.c **** * Function Name: CLR_STR_ISR_GetPriority
 272:Generated_Source\PSoC5/CLR_STR_ISR.c **** ********************************************************************************
 273:Generated_Source\PSoC5/CLR_STR_ISR.c **** *
 274:Generated_Source\PSoC5/CLR_STR_ISR.c **** * Summary:
 275:Generated_Source\PSoC5/CLR_STR_ISR.c **** *   Gets the Priority of the Interrupt.
 276:Generated_Source\PSoC5/CLR_STR_ISR.c **** *
 277:Generated_Source\PSoC5/CLR_STR_ISR.c **** * Parameters:
 278:Generated_Source\PSoC5/CLR_STR_ISR.c **** *   None
 279:Generated_Source\PSoC5/CLR_STR_ISR.c **** *
 280:Generated_Source\PSoC5/CLR_STR_ISR.c **** * Return:
 281:Generated_Source\PSoC5/CLR_STR_ISR.c **** *   Priority of the interrupt, 0 being the highest priority
 282:Generated_Source\PSoC5/CLR_STR_ISR.c **** *    PSoC 3 and PSoC 5LP: Priority is from 0 to 7.
 283:Generated_Source\PSoC5/CLR_STR_ISR.c **** *    PSoC 4: Priority is from 0 to 3.
 284:Generated_Source\PSoC5/CLR_STR_ISR.c **** *
 285:Generated_Source\PSoC5/CLR_STR_ISR.c **** *******************************************************************************/
 286:Generated_Source\PSoC5/CLR_STR_ISR.c **** uint8 CLR_STR_ISR_GetPriority(void)
 287:Generated_Source\PSoC5/CLR_STR_ISR.c **** {
 153              		.loc 1 287 0
 154              		.cfi_startproc
 155              		@ args = 0, pretend = 0, frame = 0
 156              		@ frame_needed = 0, uses_anonymous_args = 0
 157              		@ link register save eliminated.
 288:Generated_Source\PSoC5/CLR_STR_ISR.c ****     uint8 priority;
 289:Generated_Source\PSoC5/CLR_STR_ISR.c **** 
 290:Generated_Source\PSoC5/CLR_STR_ISR.c **** 
 291:Generated_Source\PSoC5/CLR_STR_ISR.c ****     priority = *CLR_STR_ISR_INTC_PRIOR >> 5;
 158              		.loc 1 291 0
 159 0000 014B     		ldr	r3, .L16
 160 0002 1878     		ldrb	r0, [r3]	@ zero_extendqisi2
 161              	.LVL7:
 292:Generated_Source\PSoC5/CLR_STR_ISR.c **** 
 293:Generated_Source\PSoC5/CLR_STR_ISR.c ****     return priority;
 294:Generated_Source\PSoC5/CLR_STR_ISR.c **** }
 162              		.loc 1 294 0
ARM GAS  C:\Users\dmarsch\AppData\Local\Temp\ccviHmsi.s 			page 9


 163 0004 4009     		lsrs	r0, r0, #5
 164              	.LVL8:
 165 0006 7047     		bx	lr
 166              	.L17:
 167              		.align	2
 168              	.L16:
 169 0008 04E400E0 		.word	-536812540
 170              		.cfi_endproc
 171              	.LFE7:
 172              		.size	CLR_STR_ISR_GetPriority, .-CLR_STR_ISR_GetPriority
 173              		.section	.text.CLR_STR_ISR_Enable,"ax",%progbits
 174              		.align	2
 175              		.global	CLR_STR_ISR_Enable
 176              		.thumb
 177              		.thumb_func
 178              		.type	CLR_STR_ISR_Enable, %function
 179              	CLR_STR_ISR_Enable:
 180              	.LFB8:
 295:Generated_Source\PSoC5/CLR_STR_ISR.c **** 
 296:Generated_Source\PSoC5/CLR_STR_ISR.c **** 
 297:Generated_Source\PSoC5/CLR_STR_ISR.c **** /*******************************************************************************
 298:Generated_Source\PSoC5/CLR_STR_ISR.c **** * Function Name: CLR_STR_ISR_Enable
 299:Generated_Source\PSoC5/CLR_STR_ISR.c **** ********************************************************************************
 300:Generated_Source\PSoC5/CLR_STR_ISR.c **** *
 301:Generated_Source\PSoC5/CLR_STR_ISR.c **** * Summary:
 302:Generated_Source\PSoC5/CLR_STR_ISR.c **** *   Enables the interrupt to the interrupt controller. Do not call this function
 303:Generated_Source\PSoC5/CLR_STR_ISR.c **** *   unless ISR_Start() has been called or the functionality of the ISR_Start() 
 304:Generated_Source\PSoC5/CLR_STR_ISR.c **** *   function, which sets the vector and the priority, has been called.
 305:Generated_Source\PSoC5/CLR_STR_ISR.c **** *
 306:Generated_Source\PSoC5/CLR_STR_ISR.c **** * Parameters:
 307:Generated_Source\PSoC5/CLR_STR_ISR.c **** *   None
 308:Generated_Source\PSoC5/CLR_STR_ISR.c **** *
 309:Generated_Source\PSoC5/CLR_STR_ISR.c **** * Return:
 310:Generated_Source\PSoC5/CLR_STR_ISR.c **** *   None
 311:Generated_Source\PSoC5/CLR_STR_ISR.c **** *
 312:Generated_Source\PSoC5/CLR_STR_ISR.c **** *******************************************************************************/
 313:Generated_Source\PSoC5/CLR_STR_ISR.c **** void CLR_STR_ISR_Enable(void)
 314:Generated_Source\PSoC5/CLR_STR_ISR.c **** {
 181              		.loc 1 314 0
 182              		.cfi_startproc
 183              		@ args = 0, pretend = 0, frame = 0
 184              		@ frame_needed = 0, uses_anonymous_args = 0
 185              		@ link register save eliminated.
 315:Generated_Source\PSoC5/CLR_STR_ISR.c ****     /* Enable the general interrupt. */
 316:Generated_Source\PSoC5/CLR_STR_ISR.c ****     *CLR_STR_ISR_INTC_SET_EN = CLR_STR_ISR__INTC_MASK;
 186              		.loc 1 316 0
 187 0000 1022     		movs	r2, #16
 188 0002 014B     		ldr	r3, .L19
 189 0004 1A60     		str	r2, [r3]
 190 0006 7047     		bx	lr
 191              	.L20:
 192              		.align	2
 193              	.L19:
 194 0008 00E100E0 		.word	-536813312
 195              		.cfi_endproc
 196              	.LFE8:
 197              		.size	CLR_STR_ISR_Enable, .-CLR_STR_ISR_Enable
ARM GAS  C:\Users\dmarsch\AppData\Local\Temp\ccviHmsi.s 			page 10


 198              		.section	.text.CLR_STR_ISR_GetState,"ax",%progbits
 199              		.align	2
 200              		.global	CLR_STR_ISR_GetState
 201              		.thumb
 202              		.thumb_func
 203              		.type	CLR_STR_ISR_GetState, %function
 204              	CLR_STR_ISR_GetState:
 205              	.LFB9:
 317:Generated_Source\PSoC5/CLR_STR_ISR.c **** }
 318:Generated_Source\PSoC5/CLR_STR_ISR.c **** 
 319:Generated_Source\PSoC5/CLR_STR_ISR.c **** 
 320:Generated_Source\PSoC5/CLR_STR_ISR.c **** /*******************************************************************************
 321:Generated_Source\PSoC5/CLR_STR_ISR.c **** * Function Name: CLR_STR_ISR_GetState
 322:Generated_Source\PSoC5/CLR_STR_ISR.c **** ********************************************************************************
 323:Generated_Source\PSoC5/CLR_STR_ISR.c **** *
 324:Generated_Source\PSoC5/CLR_STR_ISR.c **** * Summary:
 325:Generated_Source\PSoC5/CLR_STR_ISR.c **** *   Gets the state (enabled, disabled) of the Interrupt.
 326:Generated_Source\PSoC5/CLR_STR_ISR.c **** *
 327:Generated_Source\PSoC5/CLR_STR_ISR.c **** * Parameters:
 328:Generated_Source\PSoC5/CLR_STR_ISR.c **** *   None
 329:Generated_Source\PSoC5/CLR_STR_ISR.c **** *
 330:Generated_Source\PSoC5/CLR_STR_ISR.c **** * Return:
 331:Generated_Source\PSoC5/CLR_STR_ISR.c **** *   1 if enabled, 0 if disabled.
 332:Generated_Source\PSoC5/CLR_STR_ISR.c **** *
 333:Generated_Source\PSoC5/CLR_STR_ISR.c **** *******************************************************************************/
 334:Generated_Source\PSoC5/CLR_STR_ISR.c **** uint8 CLR_STR_ISR_GetState(void)
 335:Generated_Source\PSoC5/CLR_STR_ISR.c **** {
 206              		.loc 1 335 0
 207              		.cfi_startproc
 208              		@ args = 0, pretend = 0, frame = 0
 209              		@ frame_needed = 0, uses_anonymous_args = 0
 210              		@ link register save eliminated.
 336:Generated_Source\PSoC5/CLR_STR_ISR.c ****     /* Get the state of the general interrupt. */
 337:Generated_Source\PSoC5/CLR_STR_ISR.c ****     return ((*CLR_STR_ISR_INTC_SET_EN & (uint32)CLR_STR_ISR__INTC_MASK) != 0u) ? 1u:0u;
 211              		.loc 1 337 0
 212 0000 044B     		ldr	r3, .L24
 213 0002 1B68     		ldr	r3, [r3]
 214 0004 13F0100F 		tst	r3, #16
 215 0008 01D0     		beq	.L23
 216 000a 0120     		movs	r0, #1
 217 000c 7047     		bx	lr
 218              	.L23:
 219 000e 0020     		movs	r0, #0
 338:Generated_Source\PSoC5/CLR_STR_ISR.c **** }
 220              		.loc 1 338 0
 221 0010 7047     		bx	lr
 222              	.L25:
 223 0012 00BF     		.align	2
 224              	.L24:
 225 0014 00E100E0 		.word	-536813312
 226              		.cfi_endproc
 227              	.LFE9:
 228              		.size	CLR_STR_ISR_GetState, .-CLR_STR_ISR_GetState
 229              		.section	.text.CLR_STR_ISR_Disable,"ax",%progbits
 230              		.align	2
 231              		.global	CLR_STR_ISR_Disable
 232              		.thumb
ARM GAS  C:\Users\dmarsch\AppData\Local\Temp\ccviHmsi.s 			page 11


 233              		.thumb_func
 234              		.type	CLR_STR_ISR_Disable, %function
 235              	CLR_STR_ISR_Disable:
 236              	.LFB10:
 339:Generated_Source\PSoC5/CLR_STR_ISR.c **** 
 340:Generated_Source\PSoC5/CLR_STR_ISR.c **** 
 341:Generated_Source\PSoC5/CLR_STR_ISR.c **** /*******************************************************************************
 342:Generated_Source\PSoC5/CLR_STR_ISR.c **** * Function Name: CLR_STR_ISR_Disable
 343:Generated_Source\PSoC5/CLR_STR_ISR.c **** ********************************************************************************
 344:Generated_Source\PSoC5/CLR_STR_ISR.c **** *
 345:Generated_Source\PSoC5/CLR_STR_ISR.c **** * Summary:
 346:Generated_Source\PSoC5/CLR_STR_ISR.c **** *   Disables the Interrupt in the interrupt controller.
 347:Generated_Source\PSoC5/CLR_STR_ISR.c **** *
 348:Generated_Source\PSoC5/CLR_STR_ISR.c **** * Parameters:
 349:Generated_Source\PSoC5/CLR_STR_ISR.c **** *   None
 350:Generated_Source\PSoC5/CLR_STR_ISR.c **** *
 351:Generated_Source\PSoC5/CLR_STR_ISR.c **** * Return:
 352:Generated_Source\PSoC5/CLR_STR_ISR.c **** *   None
 353:Generated_Source\PSoC5/CLR_STR_ISR.c **** *
 354:Generated_Source\PSoC5/CLR_STR_ISR.c **** *******************************************************************************/
 355:Generated_Source\PSoC5/CLR_STR_ISR.c **** void CLR_STR_ISR_Disable(void)
 356:Generated_Source\PSoC5/CLR_STR_ISR.c **** {
 237              		.loc 1 356 0
 238              		.cfi_startproc
 239              		@ args = 0, pretend = 0, frame = 0
 240              		@ frame_needed = 0, uses_anonymous_args = 0
 241              		@ link register save eliminated.
 357:Generated_Source\PSoC5/CLR_STR_ISR.c ****     /* Disable the general interrupt. */
 358:Generated_Source\PSoC5/CLR_STR_ISR.c ****     *CLR_STR_ISR_INTC_CLR_EN = CLR_STR_ISR__INTC_MASK;
 242              		.loc 1 358 0
 243 0000 1022     		movs	r2, #16
 244 0002 014B     		ldr	r3, .L27
 245 0004 1A60     		str	r2, [r3]
 246 0006 7047     		bx	lr
 247              	.L28:
 248              		.align	2
 249              	.L27:
 250 0008 80E100E0 		.word	-536813184
 251              		.cfi_endproc
 252              	.LFE10:
 253              		.size	CLR_STR_ISR_Disable, .-CLR_STR_ISR_Disable
 254              		.section	.text.CLR_STR_ISR_Start,"ax",%progbits
 255              		.align	2
 256              		.global	CLR_STR_ISR_Start
 257              		.thumb
 258              		.thumb_func
 259              		.type	CLR_STR_ISR_Start, %function
 260              	CLR_STR_ISR_Start:
 261              	.LFB0:
  65:Generated_Source\PSoC5/CLR_STR_ISR.c ****     /* For all we know the interrupt is active. */
 262              		.loc 1 65 0
 263              		.cfi_startproc
 264              		@ args = 0, pretend = 0, frame = 0
 265              		@ frame_needed = 0, uses_anonymous_args = 0
 266 0000 08B5     		push	{r3, lr}
 267              		.cfi_def_cfa_offset 8
 268              		.cfi_offset 3, -8
ARM GAS  C:\Users\dmarsch\AppData\Local\Temp\ccviHmsi.s 			page 12


 269              		.cfi_offset 14, -4
  67:Generated_Source\PSoC5/CLR_STR_ISR.c **** 
 270              		.loc 1 67 0
 271 0002 FFF7FEFF 		bl	CLR_STR_ISR_Disable
 272              	.LVL9:
  70:Generated_Source\PSoC5/CLR_STR_ISR.c **** 
 273              		.loc 1 70 0
 274 0006 0448     		ldr	r0, .L31
 275 0008 FFF7FEFF 		bl	CLR_STR_ISR_SetVector
 276              	.LVL10:
  73:Generated_Source\PSoC5/CLR_STR_ISR.c **** 
 277              		.loc 1 73 0
 278 000c 0720     		movs	r0, #7
 279 000e FFF7FEFF 		bl	CLR_STR_ISR_SetPriority
 280              	.LVL11:
  76:Generated_Source\PSoC5/CLR_STR_ISR.c **** }
 281              		.loc 1 76 0
 282 0012 FFF7FEFF 		bl	CLR_STR_ISR_Enable
 283              	.LVL12:
 284 0016 08BD     		pop	{r3, pc}
 285              	.L32:
 286              		.align	2
 287              	.L31:
 288 0018 00000000 		.word	CLR_STR_ISR_Interrupt
 289              		.cfi_endproc
 290              	.LFE0:
 291              		.size	CLR_STR_ISR_Start, .-CLR_STR_ISR_Start
 292              		.section	.text.CLR_STR_ISR_StartEx,"ax",%progbits
 293              		.align	2
 294              		.global	CLR_STR_ISR_StartEx
 295              		.thumb
 296              		.thumb_func
 297              		.type	CLR_STR_ISR_StartEx, %function
 298              	CLR_STR_ISR_StartEx:
 299              	.LFB1:
 108:Generated_Source\PSoC5/CLR_STR_ISR.c ****     /* For all we know the interrupt is active. */
 300              		.loc 1 108 0
 301              		.cfi_startproc
 302              		@ args = 0, pretend = 0, frame = 0
 303              		@ frame_needed = 0, uses_anonymous_args = 0
 304              	.LVL13:
 305 0000 10B5     		push	{r4, lr}
 306              		.cfi_def_cfa_offset 8
 307              		.cfi_offset 4, -8
 308              		.cfi_offset 14, -4
 309 0002 0446     		mov	r4, r0
 110:Generated_Source\PSoC5/CLR_STR_ISR.c **** 
 310              		.loc 1 110 0
 311 0004 FFF7FEFF 		bl	CLR_STR_ISR_Disable
 312              	.LVL14:
 113:Generated_Source\PSoC5/CLR_STR_ISR.c **** 
 313              		.loc 1 113 0
 314 0008 2046     		mov	r0, r4
 315 000a FFF7FEFF 		bl	CLR_STR_ISR_SetVector
 316              	.LVL15:
 116:Generated_Source\PSoC5/CLR_STR_ISR.c **** 
 317              		.loc 1 116 0
ARM GAS  C:\Users\dmarsch\AppData\Local\Temp\ccviHmsi.s 			page 13


 318 000e 0720     		movs	r0, #7
 319 0010 FFF7FEFF 		bl	CLR_STR_ISR_SetPriority
 320              	.LVL16:
 119:Generated_Source\PSoC5/CLR_STR_ISR.c **** }
 321              		.loc 1 119 0
 322 0014 FFF7FEFF 		bl	CLR_STR_ISR_Enable
 323              	.LVL17:
 324 0018 10BD     		pop	{r4, pc}
 325              		.cfi_endproc
 326              	.LFE1:
 327              		.size	CLR_STR_ISR_StartEx, .-CLR_STR_ISR_StartEx
 328 001a 00BF     		.section	.text.CLR_STR_ISR_Stop,"ax",%progbits
 329              		.align	2
 330              		.global	CLR_STR_ISR_Stop
 331              		.thumb
 332              		.thumb_func
 333              		.type	CLR_STR_ISR_Stop, %function
 334              	CLR_STR_ISR_Stop:
 335              	.LFB2:
 138:Generated_Source\PSoC5/CLR_STR_ISR.c ****     /* Disable this interrupt. */
 336              		.loc 1 138 0
 337              		.cfi_startproc
 338              		@ args = 0, pretend = 0, frame = 0
 339              		@ frame_needed = 0, uses_anonymous_args = 0
 340 0000 08B5     		push	{r3, lr}
 341              		.cfi_def_cfa_offset 8
 342              		.cfi_offset 3, -8
 343              		.cfi_offset 14, -4
 140:Generated_Source\PSoC5/CLR_STR_ISR.c **** 
 344              		.loc 1 140 0
 345 0002 FFF7FEFF 		bl	CLR_STR_ISR_Disable
 346              	.LVL18:
 143:Generated_Source\PSoC5/CLR_STR_ISR.c **** }
 347              		.loc 1 143 0
 348 0006 0248     		ldr	r0, .L37
 349 0008 FFF7FEFF 		bl	CLR_STR_ISR_SetVector
 350              	.LVL19:
 351 000c 08BD     		pop	{r3, pc}
 352              	.L38:
 353 000e 00BF     		.align	2
 354              	.L37:
 355 0010 00000000 		.word	IntDefaultHandler
 356              		.cfi_endproc
 357              	.LFE2:
 358              		.size	CLR_STR_ISR_Stop, .-CLR_STR_ISR_Stop
 359              		.section	.text.CLR_STR_ISR_SetPending,"ax",%progbits
 360              		.align	2
 361              		.global	CLR_STR_ISR_SetPending
 362              		.thumb
 363              		.thumb_func
 364              		.type	CLR_STR_ISR_SetPending, %function
 365              	CLR_STR_ISR_SetPending:
 366              	.LFB11:
 359:Generated_Source\PSoC5/CLR_STR_ISR.c **** }
 360:Generated_Source\PSoC5/CLR_STR_ISR.c **** 
 361:Generated_Source\PSoC5/CLR_STR_ISR.c **** 
 362:Generated_Source\PSoC5/CLR_STR_ISR.c **** /*******************************************************************************
ARM GAS  C:\Users\dmarsch\AppData\Local\Temp\ccviHmsi.s 			page 14


 363:Generated_Source\PSoC5/CLR_STR_ISR.c **** * Function Name: CLR_STR_ISR_SetPending
 364:Generated_Source\PSoC5/CLR_STR_ISR.c **** ********************************************************************************
 365:Generated_Source\PSoC5/CLR_STR_ISR.c **** *
 366:Generated_Source\PSoC5/CLR_STR_ISR.c **** * Summary:
 367:Generated_Source\PSoC5/CLR_STR_ISR.c **** *   Causes the Interrupt to enter the pending state, a software method of
 368:Generated_Source\PSoC5/CLR_STR_ISR.c **** *   generating the interrupt.
 369:Generated_Source\PSoC5/CLR_STR_ISR.c **** *
 370:Generated_Source\PSoC5/CLR_STR_ISR.c **** * Parameters:
 371:Generated_Source\PSoC5/CLR_STR_ISR.c **** *   None
 372:Generated_Source\PSoC5/CLR_STR_ISR.c **** *
 373:Generated_Source\PSoC5/CLR_STR_ISR.c **** * Return:
 374:Generated_Source\PSoC5/CLR_STR_ISR.c **** *   None
 375:Generated_Source\PSoC5/CLR_STR_ISR.c **** *
 376:Generated_Source\PSoC5/CLR_STR_ISR.c **** * Side Effects:
 377:Generated_Source\PSoC5/CLR_STR_ISR.c **** *   If interrupts are enabled and the interrupt is set up properly, the ISR is
 378:Generated_Source\PSoC5/CLR_STR_ISR.c **** *   entered (depending on the priority of this interrupt and other pending 
 379:Generated_Source\PSoC5/CLR_STR_ISR.c **** *   interrupts).
 380:Generated_Source\PSoC5/CLR_STR_ISR.c **** *
 381:Generated_Source\PSoC5/CLR_STR_ISR.c **** *******************************************************************************/
 382:Generated_Source\PSoC5/CLR_STR_ISR.c **** void CLR_STR_ISR_SetPending(void)
 383:Generated_Source\PSoC5/CLR_STR_ISR.c **** {
 367              		.loc 1 383 0
 368              		.cfi_startproc
 369              		@ args = 0, pretend = 0, frame = 0
 370              		@ frame_needed = 0, uses_anonymous_args = 0
 371              		@ link register save eliminated.
 384:Generated_Source\PSoC5/CLR_STR_ISR.c ****     *CLR_STR_ISR_INTC_SET_PD = CLR_STR_ISR__INTC_MASK;
 372              		.loc 1 384 0
 373 0000 1022     		movs	r2, #16
 374 0002 014B     		ldr	r3, .L40
 375 0004 1A60     		str	r2, [r3]
 376 0006 7047     		bx	lr
 377              	.L41:
 378              		.align	2
 379              	.L40:
 380 0008 00E200E0 		.word	-536813056
 381              		.cfi_endproc
 382              	.LFE11:
 383              		.size	CLR_STR_ISR_SetPending, .-CLR_STR_ISR_SetPending
 384              		.section	.text.CLR_STR_ISR_ClearPending,"ax",%progbits
 385              		.align	2
 386              		.global	CLR_STR_ISR_ClearPending
 387              		.thumb
 388              		.thumb_func
 389              		.type	CLR_STR_ISR_ClearPending, %function
 390              	CLR_STR_ISR_ClearPending:
 391              	.LFB12:
 385:Generated_Source\PSoC5/CLR_STR_ISR.c **** }
 386:Generated_Source\PSoC5/CLR_STR_ISR.c **** 
 387:Generated_Source\PSoC5/CLR_STR_ISR.c **** 
 388:Generated_Source\PSoC5/CLR_STR_ISR.c **** /*******************************************************************************
 389:Generated_Source\PSoC5/CLR_STR_ISR.c **** * Function Name: CLR_STR_ISR_ClearPending
 390:Generated_Source\PSoC5/CLR_STR_ISR.c **** ********************************************************************************
 391:Generated_Source\PSoC5/CLR_STR_ISR.c **** *
 392:Generated_Source\PSoC5/CLR_STR_ISR.c **** * Summary:
 393:Generated_Source\PSoC5/CLR_STR_ISR.c **** *   Clears a pending interrupt in the interrupt controller.
 394:Generated_Source\PSoC5/CLR_STR_ISR.c **** *
ARM GAS  C:\Users\dmarsch\AppData\Local\Temp\ccviHmsi.s 			page 15


 395:Generated_Source\PSoC5/CLR_STR_ISR.c **** *   Note Some interrupt sources are clear-on-read and require the block 
 396:Generated_Source\PSoC5/CLR_STR_ISR.c **** *   interrupt/status register to be read/cleared with the appropriate block API 
 397:Generated_Source\PSoC5/CLR_STR_ISR.c **** *   (GPIO, UART, and so on). Otherwise the ISR will continue to remain in 
 398:Generated_Source\PSoC5/CLR_STR_ISR.c **** *   pending state even though the interrupt itself is cleared using this API.
 399:Generated_Source\PSoC5/CLR_STR_ISR.c **** *
 400:Generated_Source\PSoC5/CLR_STR_ISR.c **** * Parameters:
 401:Generated_Source\PSoC5/CLR_STR_ISR.c **** *   None
 402:Generated_Source\PSoC5/CLR_STR_ISR.c **** *
 403:Generated_Source\PSoC5/CLR_STR_ISR.c **** * Return:
 404:Generated_Source\PSoC5/CLR_STR_ISR.c **** *   None
 405:Generated_Source\PSoC5/CLR_STR_ISR.c **** *
 406:Generated_Source\PSoC5/CLR_STR_ISR.c **** *******************************************************************************/
 407:Generated_Source\PSoC5/CLR_STR_ISR.c **** void CLR_STR_ISR_ClearPending(void)
 408:Generated_Source\PSoC5/CLR_STR_ISR.c **** {
 392              		.loc 1 408 0
 393              		.cfi_startproc
 394              		@ args = 0, pretend = 0, frame = 0
 395              		@ frame_needed = 0, uses_anonymous_args = 0
 396              		@ link register save eliminated.
 409:Generated_Source\PSoC5/CLR_STR_ISR.c ****     *CLR_STR_ISR_INTC_CLR_PD = CLR_STR_ISR__INTC_MASK;
 397              		.loc 1 409 0
 398 0000 1022     		movs	r2, #16
 399 0002 014B     		ldr	r3, .L43
 400 0004 1A60     		str	r2, [r3]
 401 0006 7047     		bx	lr
 402              	.L44:
 403              		.align	2
 404              	.L43:
 405 0008 80E200E0 		.word	-536812928
 406              		.cfi_endproc
 407              	.LFE12:
 408              		.size	CLR_STR_ISR_ClearPending, .-CLR_STR_ISR_ClearPending
 409              		.comm	value,4,4
 410              		.comm	flag,4,4
 411              		.text
 412              	.Letext0:
 413              		.file 2 "Generated_Source\\PSoC5/cytypes.h"
 414              		.file 3 "Generated_Source\\PSoC5\\SW1.h"
