ARM GAS  C:\Users\dmarsch\AppData\Local\Temp\ccx5EtsC.s 			page 1


   1              		.syntax unified
   2              		.cpu cortex-m3
   3              		.fpu softvfp
   4              		.eabi_attribute 20, 1
   5              		.eabi_attribute 21, 1
   6              		.eabi_attribute 23, 3
   7              		.eabi_attribute 24, 1
   8              		.eabi_attribute 25, 1
   9              		.eabi_attribute 26, 1
  10              		.eabi_attribute 30, 1
  11              		.eabi_attribute 34, 1
  12              		.eabi_attribute 18, 4
  13              		.thumb
  14              		.syntax unified
  15              		.file	"main.c"
  16              		.text
  17              	.Ltext0:
  18              		.cfi_sections	.debug_frame
  19              		.section	.text.blocking_char,"ax",%progbits
  20              		.align	2
  21              		.global	blocking_char
  22              		.thumb
  23              		.thumb_func
  24              		.type	blocking_char, %function
  25              	blocking_char:
  26              	.LFB63:
  27              		.file 1 "main.c"
   1:main.c        **** /* ========================================
   2:main.c        ****  *
   3:main.c        ****  * Copyright YOUR COMPANY, THE YEAR
   4:main.c        ****  * All Rights Reserved
   5:main.c        ****  * UNPUBLISHED, LICENSED SOFTWARE.
   6:main.c        ****  *
   7:main.c        ****  * CONFIDENTIAL AND PROPRIETARY INFORMATION
   8:main.c        ****  * WHICH IS THE PROPERTY OF your company.
   9:main.c        ****  *
  10:main.c        ****  * ========================================
  11:main.c        **** */
  12:main.c        **** #include "project.h"
  13:main.c        **** extern char disp1[];
  14:main.c        **** extern char disp2[];
  15:main.c        **** extern char disp3[];
  16:main.c        **** extern char disp4[];
  17:main.c        **** extern char eeprom[];
  18:main.c        **** extern volatile int flag;   
  19:main.c        **** int check = 0;
  20:main.c        **** 
  21:main.c        **** char disp1[17];
  22:main.c        **** char disp2[17];
  23:main.c        **** char disp3[17];
  24:main.c        **** char disp4[17];
  25:main.c        **** char eeprom[17];
  26:main.c        **** 
  27:main.c        **** char blocking_char() //when input != 0 function exits and returns a char
  28:main.c        **** {
  28              		.loc 1 28 0
  29              		.cfi_startproc
ARM GAS  C:\Users\dmarsch\AppData\Local\Temp\ccx5EtsC.s 			page 2


  30              		@ args = 0, pretend = 0, frame = 0
  31              		@ frame_needed = 0, uses_anonymous_args = 0
  32 0000 38B5     		push	{r3, r4, r5, lr}
  33              		.cfi_def_cfa_offset 16
  34              		.cfi_offset 3, -16
  35              		.cfi_offset 4, -12
  36              		.cfi_offset 5, -8
  37              		.cfi_offset 14, -4
  38              	.LVL0:
  29:main.c        ****     char input = 0;
  39              		.loc 1 29 0
  40 0002 0025     		movs	r5, #0
  30:main.c        ****     
  31:main.c        ****     while(input == 0) 
  41              		.loc 1 31 0
  42 0004 2CE0     		b	.L2
  43              	.LVL1:
  44              	.L4:
  32:main.c        ****     {
  33:main.c        ****         input = UART_GetChar(); // get data if input not 0
  45              		.loc 1 33 0
  46 0006 FFF7FEFF 		bl	UART_GetChar
  47              	.LVL2:
  48 000a 0546     		mov	r5, r0
  49              	.LVL3:
  34:main.c        ****         if (flag == 1) //erase all string data
  50              		.loc 1 34 0
  51 000c 164B     		ldr	r3, .L6
  52 000e 1B68     		ldr	r3, [r3]
  53 0010 012B     		cmp	r3, #1
  54 0012 25D1     		bne	.L2
  35:main.c        ****         {
  36:main.c        ****             LCD_ClearDisplay();
  55              		.loc 1 36 0
  56 0014 0120     		movs	r0, #1
  57 0016 FFF7FEFF 		bl	LCD_WriteControl
  58              	.LVL4:
  37:main.c        ****             memset(disp1, 0, 17);                                   //reset string data to 0s
  59              		.loc 1 37 0
  60 001a 144B     		ldr	r3, .L6+4
  61 001c 0024     		movs	r4, #0
  62 001e 1C60     		str	r4, [r3]	@ unaligned
  63 0020 5C60     		str	r4, [r3, #4]	@ unaligned
  64 0022 9C60     		str	r4, [r3, #8]	@ unaligned
  65 0024 DC60     		str	r4, [r3, #12]	@ unaligned
  66 0026 1C74     		strb	r4, [r3, #16]
  38:main.c        ****             memset(disp2, 0, 17);
  67              		.loc 1 38 0
  68 0028 114B     		ldr	r3, .L6+8
  69 002a 1C60     		str	r4, [r3]	@ unaligned
  70 002c 5C60     		str	r4, [r3, #4]	@ unaligned
  71 002e 9C60     		str	r4, [r3, #8]	@ unaligned
  72 0030 DC60     		str	r4, [r3, #12]	@ unaligned
  73 0032 1C74     		strb	r4, [r3, #16]
  39:main.c        ****             memset(disp3, 0, 17);
  74              		.loc 1 39 0
  75 0034 0F4B     		ldr	r3, .L6+12
ARM GAS  C:\Users\dmarsch\AppData\Local\Temp\ccx5EtsC.s 			page 3


  76 0036 1C60     		str	r4, [r3]	@ unaligned
  77 0038 5C60     		str	r4, [r3, #4]	@ unaligned
  78 003a 9C60     		str	r4, [r3, #8]	@ unaligned
  79 003c DC60     		str	r4, [r3, #12]	@ unaligned
  80 003e 1C74     		strb	r4, [r3, #16]
  40:main.c        ****             memset(disp4, 0, 17);
  81              		.loc 1 40 0
  82 0040 0D4B     		ldr	r3, .L6+16
  83 0042 1C60     		str	r4, [r3]	@ unaligned
  84 0044 5C60     		str	r4, [r3, #4]	@ unaligned
  85 0046 9C60     		str	r4, [r3, #8]	@ unaligned
  86 0048 DC60     		str	r4, [r3, #12]	@ unaligned
  87 004a 1C74     		strb	r4, [r3, #16]
  41:main.c        ****             EEPROM_EraseSector(0);                                  //erase sector of eeprom which 
  88              		.loc 1 41 0
  89 004c 2046     		mov	r0, r4
  90 004e FFF7FEFF 		bl	EEPROM_EraseSector
  91              	.LVL5:
  42:main.c        ****             UART_PutString("\r\nThe strings have been cleared");
  92              		.loc 1 42 0
  93 0052 0A48     		ldr	r0, .L6+20
  94 0054 FFF7FEFF 		bl	UART_PutString
  95              	.LVL6:
  43:main.c        ****             check = 0;                                              //send message again
  96              		.loc 1 43 0
  97 0058 094B     		ldr	r3, .L6+24
  98 005a 1C60     		str	r4, [r3]
  44:main.c        ****             flag = 0;                                               //reset flag
  99              		.loc 1 44 0
 100 005c 024B     		ldr	r3, .L6
 101 005e 1C60     		str	r4, [r3]
 102              	.LVL7:
 103              	.L2:
  31:main.c        ****     {
 104              		.loc 1 31 0
 105 0060 002D     		cmp	r5, #0
 106 0062 D0D0     		beq	.L4
  45:main.c        ****         }        
  46:main.c        ****     }
  47:main.c        ****     return input;
  48:main.c        **** }
 107              		.loc 1 48 0
 108 0064 2846     		mov	r0, r5
 109 0066 38BD     		pop	{r3, r4, r5, pc}
 110              	.LVL8:
 111              	.L7:
 112              		.align	2
 113              	.L6:
 114 0068 00000000 		.word	flag
 115 006c 00000000 		.word	disp1
 116 0070 00000000 		.word	disp2
 117 0074 00000000 		.word	disp3
 118 0078 00000000 		.word	disp4
 119 007c 00000000 		.word	.LC0
 120 0080 00000000 		.word	.LANCHOR0
 121              		.cfi_endproc
 122              	.LFE63:
ARM GAS  C:\Users\dmarsch\AppData\Local\Temp\ccx5EtsC.s 			page 4


 123              		.size	blocking_char, .-blocking_char
 124              		.section	.text.save,"ax",%progbits
 125              		.align	2
 126              		.global	save
 127              		.thumb
 128              		.thumb_func
 129              		.type	save, %function
 130              	save:
 131              	.LFB64:
  49:main.c        **** 
  50:main.c        **** 
  51:main.c        **** void save(char* inputArray)
  52:main.c        **** {
 132              		.loc 1 52 0
 133              		.cfi_startproc
 134              		@ args = 0, pretend = 0, frame = 0
 135              		@ frame_needed = 0, uses_anonymous_args = 0
 136              	.LVL9:
 137 0000 38B5     		push	{r3, r4, r5, lr}
 138              		.cfi_def_cfa_offset 16
 139              		.cfi_offset 3, -16
 140              		.cfi_offset 4, -12
 141              		.cfi_offset 5, -8
 142              		.cfi_offset 14, -4
 143 0002 0546     		mov	r5, r0
 144              	.LVL10:
  53:main.c        ****     int i = 0;
 145              		.loc 1 53 0
 146 0004 0024     		movs	r4, #0
  54:main.c        ****     while(i < 100)
 147              		.loc 1 54 0
 148 0006 33E0     		b	.L9
 149              	.LVL11:
 150              	.L17:
 151              	.LBB2:
  55:main.c        ****     {
  56:main.c        ****         char in = blocking_char();
 152              		.loc 1 56 0
 153 0008 FFF7FEFF 		bl	blocking_char
 154              	.LVL12:
  57:main.c        ****         if (in != 0x0D) //if not carriage return
 155              		.loc 1 57 0
 156 000c 0D28     		cmp	r0, #13
 157 000e 2AD0     		beq	.L10
  58:main.c        ****         { 
  59:main.c        ****             
  60:main.c        ****             if (((in == 0x08) || (in == 0x7f)) && i >= 1) //if BS or DEL pressed, rubout sequence
 158              		.loc 1 60 0
 159 0010 0828     		cmp	r0, #8
 160 0012 01D0     		beq	.L11
 161              		.loc 1 60 0 is_stmt 0 discriminator 2
 162 0014 7F28     		cmp	r0, #127
 163 0016 0ED1     		bne	.L12
 164              	.L11:
 165              		.loc 1 60 0 discriminator 3
 166 0018 002C     		cmp	r4, #0
 167 001a 0CDD     		ble	.L12
ARM GAS  C:\Users\dmarsch\AppData\Local\Temp\ccx5EtsC.s 			page 5


  61:main.c        ****             {
  62:main.c        ****                 UART_PutChar(0x08); //rubout sequence to realterm
 168              		.loc 1 62 0 is_stmt 1
 169 001c 0820     		movs	r0, #8
 170              	.LVL13:
 171 001e FFF7FEFF 		bl	UART_PutChar
 172              	.LVL14:
  63:main.c        ****                 UART_PutChar(0x20);
 173              		.loc 1 63 0
 174 0022 2020     		movs	r0, #32
 175 0024 FFF7FEFF 		bl	UART_PutChar
 176              	.LVL15:
  64:main.c        ****                 UART_PutChar(0x08);
 177              		.loc 1 64 0
 178 0028 0820     		movs	r0, #8
 179 002a FFF7FEFF 		bl	UART_PutChar
 180              	.LVL16:
  65:main.c        ****                 i = i -1; //move back 1 and write over the BS or DEL
 181              		.loc 1 65 0
 182 002e 013C     		subs	r4, r4, #1
 183              	.LVL17:
  66:main.c        ****                 inputArray[i] = '\0';
 184              		.loc 1 66 0
 185 0030 0023     		movs	r3, #0
 186 0032 2B55     		strb	r3, [r5, r4]
 187 0034 1CE0     		b	.L9
 188              	.LVL18:
 189              	.L12:
  67:main.c        ****             }
  68:main.c        ****             else if (((in == 0x08) || (in == 0x7f))&& i == 0) //if BS or DEL pressed, rubout sequen
 190              		.loc 1 68 0
 191 0036 0828     		cmp	r0, #8
 192 0038 01D0     		beq	.L14
 193              		.loc 1 68 0 is_stmt 0 discriminator 2
 194 003a 7F28     		cmp	r0, #127
 195 003c 06D1     		bne	.L15
 196              	.L14:
 197              		.loc 1 68 0 discriminator 3
 198 003e 2CB9     		cbnz	r4, .L15
 199              	.LVL19:
  69:main.c        ****             {
  70:main.c        ****                 i = 0;                                      //do nothing besides reset counter for 
  71:main.c        ****                 UART_PutChar(0x07);                         //put bel character if trying to backsp
 200              		.loc 1 71 0 is_stmt 1
 201 0040 0720     		movs	r0, #7
 202              	.LVL20:
 203 0042 FFF7FEFF 		bl	UART_PutChar
 204              	.LVL21:
  72:main.c        ****                 inputArray[i] = '\0';   
 205              		.loc 1 72 0
 206 0046 0023     		movs	r3, #0
 207 0048 2B70     		strb	r3, [r5]
 208 004a 11E0     		b	.L9
 209              	.LVL22:
 210              	.L15:
  73:main.c        ****             }
  74:main.c        ****             else if (i >= 15)
ARM GAS  C:\Users\dmarsch\AppData\Local\Temp\ccx5EtsC.s 			page 6


 211              		.loc 1 74 0
 212 004c 0E2C     		cmp	r4, #14
 213 004e 05DD     		ble	.L16
  75:main.c        ****             {
  76:main.c        ****                 inputArray[i] = '\0';
 214              		.loc 1 76 0
 215 0050 0023     		movs	r3, #0
 216 0052 2B55     		strb	r3, [r5, r4]
  77:main.c        ****                 UART_PutChar(0x07); //beep at user once 16 writeable chars reached
 217              		.loc 1 77 0
 218 0054 0720     		movs	r0, #7
 219              	.LVL23:
 220 0056 FFF7FEFF 		bl	UART_PutChar
 221              	.LVL24:
 222 005a 09E0     		b	.L9
 223              	.LVL25:
 224              	.L16:
  78:main.c        ****             }
  79:main.c        ****             else
  80:main.c        ****             {
  81:main.c        ****                 inputArray[i] = in;                         //save the data to the array
 225              		.loc 1 81 0
 226 005c 2855     		strb	r0, [r5, r4]
  82:main.c        ****                 UART_PutChar(in);                           //display to Realterm the character
 227              		.loc 1 82 0
 228 005e FFF7FEFF 		bl	UART_PutChar
 229              	.LVL26:
  83:main.c        ****                 i++;
 230              		.loc 1 83 0
 231 0062 0134     		adds	r4, r4, #1
 232              	.LVL27:
 233 0064 04E0     		b	.L9
 234              	.LVL28:
 235              	.L10:
  84:main.c        ****             }
  85:main.c        ****         }
  86:main.c        ****         else if (in == 0x0D) //if input enter, terminate string
 236              		.loc 1 86 0
 237 0066 0D28     		cmp	r0, #13
 238 0068 02D1     		bne	.L9
  87:main.c        ****         {
  88:main.c        ****             inputArray[i] = '\0';
 239              		.loc 1 88 0
 240 006a 0023     		movs	r3, #0
 241 006c 2B55     		strb	r3, [r5, r4]
 242              	.LVL29:
  89:main.c        ****             i = 100; //exit function
 243              		.loc 1 89 0
 244 006e 6424     		movs	r4, #100
 245              	.LVL30:
 246              	.L9:
 247              	.LBE2:
  54:main.c        ****     {
 248              		.loc 1 54 0
 249 0070 632C     		cmp	r4, #99
 250 0072 C9DD     		ble	.L17
  90:main.c        ****         }
ARM GAS  C:\Users\dmarsch\AppData\Local\Temp\ccx5EtsC.s 			page 7


  91:main.c        ****     }
  92:main.c        **** }
 251              		.loc 1 92 0
 252 0074 38BD     		pop	{r3, r4, r5, pc}
 253              		.cfi_endproc
 254              	.LFE64:
 255              		.size	save, .-save
 256 0076 00BF     		.section	.text.read_row,"ax",%progbits
 257              		.align	2
 258              		.global	read_row
 259              		.thumb
 260              		.thumb_func
 261              		.type	read_row, %function
 262              	read_row:
 263              	.LFB65:
  93:main.c        **** 
  94:main.c        **** void read_row(char* array, uint16 address) //reads 16 bytes from row address
  95:main.c        **** {
 264              		.loc 1 95 0
 265              		.cfi_startproc
 266              		@ args = 0, pretend = 0, frame = 0
 267              		@ frame_needed = 0, uses_anonymous_args = 0
 268              	.LVL31:
 269 0000 70B5     		push	{r4, r5, r6, lr}
 270              		.cfi_def_cfa_offset 16
 271              		.cfi_offset 4, -16
 272              		.cfi_offset 5, -12
 273              		.cfi_offset 6, -8
 274              		.cfi_offset 14, -4
 275 0002 0646     		mov	r6, r0
 276 0004 0D46     		mov	r5, r1
 277              	.LVL32:
 278              	.LBB3:
  96:main.c        ****     for (int i = 0; i <= 15; i++)
 279              		.loc 1 96 0
 280 0006 0024     		movs	r4, #0
 281 0008 05E0     		b	.L20
 282              	.LVL33:
 283              	.L21:
  97:main.c        ****     {
  98:main.c        ****         array[i] = EEPROM_ReadByte((address) + i);
 284              		.loc 1 98 0 discriminator 3
 285 000a 2819     		adds	r0, r5, r4
 286 000c 80B2     		uxth	r0, r0
 287 000e FFF7FEFF 		bl	EEPROM_ReadByte
 288              	.LVL34:
 289 0012 3055     		strb	r0, [r6, r4]
  96:main.c        ****     for (int i = 0; i <= 15; i++)
 290              		.loc 1 96 0 discriminator 3
 291 0014 0134     		adds	r4, r4, #1
 292              	.LVL35:
 293              	.L20:
  96:main.c        ****     for (int i = 0; i <= 15; i++)
 294              		.loc 1 96 0 is_stmt 0 discriminator 1
 295 0016 0F2C     		cmp	r4, #15
 296 0018 F7DD     		ble	.L21
 297              	.LBE3:
ARM GAS  C:\Users\dmarsch\AppData\Local\Temp\ccx5EtsC.s 			page 8


  99:main.c        ****     }
 100:main.c        **** }
 298              		.loc 1 100 0 is_stmt 1
 299 001a 70BD     		pop	{r4, r5, r6, pc}
 300              		.cfi_endproc
 301              	.LFE65:
 302              		.size	read_row, .-read_row
 303              		.section	.text.string_write,"ax",%progbits
 304              		.align	2
 305              		.global	string_write
 306              		.thumb
 307              		.thumb_func
 308              		.type	string_write, %function
 309              	string_write:
 310              	.LFB66:
 101:main.c        **** 
 102:main.c        **** void string_write(char * array, uint16 address) //select array and address for eeprom write memory
 103:main.c        **** {
 311              		.loc 1 103 0
 312              		.cfi_startproc
 313              		@ args = 0, pretend = 0, frame = 0
 314              		@ frame_needed = 0, uses_anonymous_args = 0
 315              	.LVL36:
 316 0000 38B5     		push	{r3, r4, r5, lr}
 317              		.cfi_def_cfa_offset 16
 318              		.cfi_offset 3, -16
 319              		.cfi_offset 4, -12
 320              		.cfi_offset 5, -8
 321              		.cfi_offset 14, -4
 322 0002 0446     		mov	r4, r0
 323 0004 0D46     		mov	r5, r1
 104:main.c        ****     UART_PutString("\r\nEnter string: ");
 324              		.loc 1 104 0
 325 0006 0548     		ldr	r0, .L25
 326              	.LVL37:
 327 0008 FFF7FEFF 		bl	UART_PutString
 328              	.LVL38:
 105:main.c        ****     save(array);
 329              		.loc 1 105 0
 330 000c 2046     		mov	r0, r4
 331 000e FFF7FEFF 		bl	save
 332              	.LVL39:
 106:main.c        ****     EEPROM_Write((const uint8*)array,address);
 333              		.loc 1 106 0
 334 0012 E9B2     		uxtb	r1, r5
 335 0014 2046     		mov	r0, r4
 336 0016 FFF7FEFF 		bl	EEPROM_Write
 337              	.LVL40:
 338 001a 38BD     		pop	{r3, r4, r5, pc}
 339              	.LVL41:
 340              	.L26:
 341              		.align	2
 342              	.L25:
 343 001c 20000000 		.word	.LC1
 344              		.cfi_endproc
 345              	.LFE66:
 346              		.size	string_write, .-string_write
ARM GAS  C:\Users\dmarsch\AppData\Local\Temp\ccx5EtsC.s 			page 9


 347              		.section	.text.string_read_lcd,"ax",%progbits
 348              		.align	2
 349              		.global	string_read_lcd
 350              		.thumb
 351              		.thumb_func
 352              		.type	string_read_lcd, %function
 353              	string_read_lcd:
 354              	.LFB67:
 107:main.c        **** }
 108:main.c        **** 
 109:main.c        **** void string_read_lcd(char* array, uint16 address) //select array and address for eeprom read memory
 110:main.c        **** {
 355              		.loc 1 110 0
 356              		.cfi_startproc
 357              		@ args = 0, pretend = 0, frame = 0
 358              		@ frame_needed = 0, uses_anonymous_args = 0
 359              	.LVL42:
 360 0000 38B5     		push	{r3, r4, r5, lr}
 361              		.cfi_def_cfa_offset 16
 362              		.cfi_offset 3, -16
 363              		.cfi_offset 4, -12
 364              		.cfi_offset 5, -8
 365              		.cfi_offset 14, -4
 366 0002 0446     		mov	r4, r0
 367 0004 0D46     		mov	r5, r1
 111:main.c        ****     LCD_ClearDisplay();
 368              		.loc 1 111 0
 369 0006 0120     		movs	r0, #1
 370              	.LVL43:
 371 0008 FFF7FEFF 		bl	LCD_WriteControl
 372              	.LVL44:
 112:main.c        ****     read_row(array,address);
 373              		.loc 1 112 0
 374 000c 2946     		mov	r1, r5
 375 000e 2046     		mov	r0, r4
 376 0010 FFF7FEFF 		bl	read_row
 377              	.LVL45:
 113:main.c        ****     LCD_Position(0,0);
 378              		.loc 1 113 0
 379 0014 0021     		movs	r1, #0
 380 0016 0846     		mov	r0, r1
 381 0018 FFF7FEFF 		bl	LCD_Position
 382              	.LVL46:
 114:main.c        ****     LCD_PrintString(array);
 383              		.loc 1 114 0
 384 001c 2046     		mov	r0, r4
 385 001e FFF7FEFF 		bl	LCD_PrintString
 386              	.LVL47:
 387 0022 38BD     		pop	{r3, r4, r5, pc}
 388              		.cfi_endproc
 389              	.LFE67:
 390              		.size	string_read_lcd, .-string_read_lcd
 391              		.section	.text.string_read_uart,"ax",%progbits
 392              		.align	2
 393              		.global	string_read_uart
 394              		.thumb
 395              		.thumb_func
ARM GAS  C:\Users\dmarsch\AppData\Local\Temp\ccx5EtsC.s 			page 10


 396              		.type	string_read_uart, %function
 397              	string_read_uart:
 398              	.LFB68:
 115:main.c        **** }
 116:main.c        **** void string_read_uart(char* array, uint16 address)
 117:main.c        **** {
 399              		.loc 1 117 0
 400              		.cfi_startproc
 401              		@ args = 0, pretend = 0, frame = 0
 402              		@ frame_needed = 0, uses_anonymous_args = 0
 403              	.LVL48:
 404 0000 10B5     		push	{r4, lr}
 405              		.cfi_def_cfa_offset 8
 406              		.cfi_offset 4, -8
 407              		.cfi_offset 14, -4
 408 0002 0446     		mov	r4, r0
 118:main.c        ****     read_row(array,address);
 409              		.loc 1 118 0
 410 0004 FFF7FEFF 		bl	read_row
 411              	.LVL49:
 119:main.c        ****     UART_PutString(array);
 412              		.loc 1 119 0
 413 0008 2046     		mov	r0, r4
 414 000a FFF7FEFF 		bl	UART_PutString
 415              	.LVL50:
 416 000e 10BD     		pop	{r4, pc}
 417              		.cfi_endproc
 418              	.LFE68:
 419              		.size	string_read_uart, .-string_read_uart
 420              		.section	.text.main,"ax",%progbits
 421              		.align	2
 422              		.global	main
 423              		.thumb
 424              		.thumb_func
 425              		.type	main, %function
 426              	main:
 427              	.LFB69:
 120:main.c        **** }
 121:main.c        **** 
 122:main.c        **** int main(void)
 123:main.c        **** {
 428              		.loc 1 123 0
 429              		.cfi_startproc
 430              		@ args = 0, pretend = 0, frame = 0
 431              		@ frame_needed = 0, uses_anonymous_args = 0
 432 0000 10B5     		push	{r4, lr}
 433              		.cfi_def_cfa_offset 8
 434              		.cfi_offset 4, -8
 435              		.cfi_offset 14, -4
 124:main.c        ****     CyGlobalIntEnable; /* Enable global interrupts. */
 436              		.loc 1 124 0
 437              		.syntax unified
 438              	@ 124 "main.c" 1
 439 0002 62B6     		CPSIE   i
 440              	@ 0 "" 2
 125:main.c        ****     CLR_STR_ISR_Start();
 441              		.loc 1 125 0
ARM GAS  C:\Users\dmarsch\AppData\Local\Temp\ccx5EtsC.s 			page 11


 442              		.thumb
 443              		.syntax unified
 444 0004 FFF7FEFF 		bl	CLR_STR_ISR_Start
 445              	.LVL51:
 126:main.c        ****     CLR_STR_ISR_Enable();
 446              		.loc 1 126 0
 447 0008 FFF7FEFF 		bl	CLR_STR_ISR_Enable
 448              	.LVL52:
 127:main.c        ****     /* Place your initialization/startup code here (e.g. MyInst_Start()) */
 128:main.c        ****     LCD_Start();
 449              		.loc 1 128 0
 450 000c FFF7FEFF 		bl	LCD_Start
 451              	.LVL53:
 129:main.c        ****     EEPROM_Start();
 452              		.loc 1 129 0
 453 0010 FFF7FEFF 		bl	EEPROM_Start
 454              	.LVL54:
 130:main.c        ****     UART_Start();
 455              		.loc 1 130 0
 456 0014 FFF7FEFF 		bl	UART_Start
 457              	.LVL55:
 131:main.c        ****     memset(disp1, 0, 17);
 458              		.loc 1 131 0
 459 0018 604A     		ldr	r2, .L49
 460 001a 0023     		movs	r3, #0
 461 001c 1360     		str	r3, [r2]	@ unaligned
 462 001e 5360     		str	r3, [r2, #4]	@ unaligned
 463 0020 9360     		str	r3, [r2, #8]	@ unaligned
 464 0022 D360     		str	r3, [r2, #12]	@ unaligned
 465 0024 1374     		strb	r3, [r2, #16]
 132:main.c        ****     memset(disp2, 0, 17);
 466              		.loc 1 132 0
 467 0026 5E4A     		ldr	r2, .L49+4
 468 0028 1360     		str	r3, [r2]	@ unaligned
 469 002a 5360     		str	r3, [r2, #4]	@ unaligned
 470 002c 9360     		str	r3, [r2, #8]	@ unaligned
 471 002e D360     		str	r3, [r2, #12]	@ unaligned
 472 0030 1374     		strb	r3, [r2, #16]
 133:main.c        ****     memset(disp3, 0, 17);
 473              		.loc 1 133 0
 474 0032 5C4A     		ldr	r2, .L49+8
 475 0034 1360     		str	r3, [r2]	@ unaligned
 476 0036 5360     		str	r3, [r2, #4]	@ unaligned
 477 0038 9360     		str	r3, [r2, #8]	@ unaligned
 478 003a D360     		str	r3, [r2, #12]	@ unaligned
 479 003c 1374     		strb	r3, [r2, #16]
 134:main.c        ****     memset(disp4, 0, 17);
 480              		.loc 1 134 0
 481 003e 5A4A     		ldr	r2, .L49+12
 482 0040 1360     		str	r3, [r2]	@ unaligned
 483 0042 5360     		str	r3, [r2, #4]	@ unaligned
 484 0044 9360     		str	r3, [r2, #8]	@ unaligned
 485 0046 D360     		str	r3, [r2, #12]	@ unaligned
 486 0048 1374     		strb	r3, [r2, #16]
 487              	.LVL56:
 135:main.c        ****     char userInput = 0;
 136:main.c        ****     char string_num = 0;
ARM GAS  C:\Users\dmarsch\AppData\Local\Temp\ccx5EtsC.s 			page 12


 137:main.c        ****     flag = 0;
 488              		.loc 1 137 0
 489 004a 584A     		ldr	r2, .L49+16
 490 004c 1360     		str	r3, [r2]
 491              	.LVL57:
 492              	.L32:
 138:main.c        ****     
 139:main.c        ****     for(;;)
 140:main.c        ****     {
 141:main.c        ****         if (check == 0) 
 493              		.loc 1 141 0
 494 004e 584B     		ldr	r3, .L49+20
 495 0050 1B68     		ldr	r3, [r3]
 496 0052 2BB9     		cbnz	r3, .L33
 142:main.c        ****         {
 143:main.c        ****             UART_PutString("\r\nEnter (e) or Display (d)?: ");
 497              		.loc 1 143 0
 498 0054 5748     		ldr	r0, .L49+24
 499 0056 FFF7FEFF 		bl	UART_PutString
 500              	.LVL58:
 144:main.c        ****             check = 1;
 501              		.loc 1 144 0
 502 005a 0122     		movs	r2, #1
 503 005c 544B     		ldr	r3, .L49+20
 504 005e 1A60     		str	r2, [r3]
 505              	.L33:
 145:main.c        ****         }
 146:main.c        ****         
 147:main.c        ****         userInput = blocking_char();
 506              		.loc 1 147 0
 507 0060 FFF7FEFF 		bl	blocking_char
 508              	.LVL59:
 509 0064 0446     		mov	r4, r0
 510              	.LVL60:
 148:main.c        ****         UART_PutChar(userInput);
 511              		.loc 1 148 0
 512 0066 FFF7FEFF 		bl	UART_PutChar
 513              	.LVL61:
 149:main.c        ****         if (userInput == 'e') 
 514              		.loc 1 149 0
 515 006a 652C     		cmp	r4, #101
 516 006c 30D1     		bne	.L34
 150:main.c        ****         {
 151:main.c        ****             check = 0;                                              //reset check to send message a
 517              		.loc 1 151 0
 518 006e 0022     		movs	r2, #0
 519 0070 4F4B     		ldr	r3, .L49+20
 520 0072 1A60     		str	r2, [r3]
 152:main.c        ****             UART_PutString("\r\nEnter string # (1 through 4): ");
 521              		.loc 1 152 0
 522 0074 5048     		ldr	r0, .L49+28
 523 0076 FFF7FEFF 		bl	UART_PutString
 524              	.LVL62:
 153:main.c        ****             string_num = blocking_char();
 525              		.loc 1 153 0
 526 007a FFF7FEFF 		bl	blocking_char
 527              	.LVL63:
ARM GAS  C:\Users\dmarsch\AppData\Local\Temp\ccx5EtsC.s 			page 13


 528 007e 0446     		mov	r4, r0
 529              	.LVL64:
 154:main.c        ****             UART_PutChar(string_num);
 530              		.loc 1 154 0
 531 0080 FFF7FEFF 		bl	UART_PutChar
 532              	.LVL65:
 155:main.c        ****             if (string_num == '1')  {
 533              		.loc 1 155 0
 534 0084 312C     		cmp	r4, #49
 535 0086 0ED1     		bne	.L35
 156:main.c        ****                 string_write(disp1,0); //which array and which row of EEPROM to write to
 536              		.loc 1 156 0
 537 0088 444C     		ldr	r4, .L49
 538              	.LVL66:
 539 008a 0021     		movs	r1, #0
 540 008c 2046     		mov	r0, r4
 541 008e FFF7FEFF 		bl	string_write
 542              	.LVL67:
 157:main.c        ****                 UART_PutString("\r\nEntered: ");
 543              		.loc 1 157 0
 544 0092 4A48     		ldr	r0, .L49+32
 545 0094 FFF7FEFF 		bl	UART_PutString
 546              	.LVL68:
 158:main.c        ****                 UART_PutString(disp1);
 547              		.loc 1 158 0
 548 0098 2046     		mov	r0, r4
 549 009a FFF7FEFF 		bl	UART_PutString
 550              	.LVL69:
 159:main.c        ****                 UART_PutString("\r\n");
 551              		.loc 1 159 0
 552 009e 4848     		ldr	r0, .L49+36
 553 00a0 FFF7FEFF 		bl	UART_PutString
 554              	.LVL70:
 555 00a4 D3E7     		b	.L32
 556              	.LVL71:
 557              	.L35:
 160:main.c        ****             }
 161:main.c        ****             else if (string_num == '2') string_write(disp2,1);
 558              		.loc 1 161 0
 559 00a6 322C     		cmp	r4, #50
 560 00a8 04D1     		bne	.L37
 561              		.loc 1 161 0 is_stmt 0 discriminator 1
 562 00aa 0121     		movs	r1, #1
 563 00ac 3C48     		ldr	r0, .L49+4
 564 00ae FFF7FEFF 		bl	string_write
 565              	.LVL72:
 566 00b2 CCE7     		b	.L32
 567              	.L37:
 162:main.c        ****             else if (string_num == '3') string_write(disp3,2);
 568              		.loc 1 162 0 is_stmt 1
 569 00b4 332C     		cmp	r4, #51
 570 00b6 04D1     		bne	.L38
 571              		.loc 1 162 0 is_stmt 0 discriminator 1
 572 00b8 0221     		movs	r1, #2
 573 00ba 3A48     		ldr	r0, .L49+8
 574 00bc FFF7FEFF 		bl	string_write
 575              	.LVL73:
ARM GAS  C:\Users\dmarsch\AppData\Local\Temp\ccx5EtsC.s 			page 14


 576 00c0 C5E7     		b	.L32
 577              	.L38:
 163:main.c        ****             else if (string_num == '4') string_write(disp4,3);
 578              		.loc 1 163 0 is_stmt 1
 579 00c2 342C     		cmp	r4, #52
 580 00c4 C3D1     		bne	.L32
 581              		.loc 1 163 0 is_stmt 0 discriminator 1
 582 00c6 0321     		movs	r1, #3
 583 00c8 3748     		ldr	r0, .L49+12
 584 00ca FFF7FEFF 		bl	string_write
 585              	.LVL74:
 586 00ce BEE7     		b	.L32
 587              	.LVL75:
 588              	.L34:
 164:main.c        ****         }
 165:main.c        ****         else if (userInput == 'd') UART_PutString("\r\nLCD (L) or UART (U)?: ");
 589              		.loc 1 165 0 is_stmt 1
 590 00d0 642C     		cmp	r4, #100
 591 00d2 03D1     		bne	.L39
 592              		.loc 1 165 0 is_stmt 0 discriminator 1
 593 00d4 3B48     		ldr	r0, .L49+40
 594 00d6 FFF7FEFF 		bl	UART_PutString
 595              	.LVL76:
 596 00da B8E7     		b	.L32
 597              	.L39:
 166:main.c        ****         else if (userInput == 'L')
 598              		.loc 1 166 0 is_stmt 1
 599 00dc 4C2C     		cmp	r4, #76
 600 00de 26D1     		bne	.L40
 167:main.c        ****         {
 168:main.c        ****             check = 0;
 601              		.loc 1 168 0
 602 00e0 0022     		movs	r2, #0
 603 00e2 334B     		ldr	r3, .L49+20
 604 00e4 1A60     		str	r2, [r3]
 169:main.c        ****             UART_PutString("\r\nEnter string # (1 through 4): ");
 605              		.loc 1 169 0
 606 00e6 3448     		ldr	r0, .L49+28
 607 00e8 FFF7FEFF 		bl	UART_PutString
 608              	.LVL77:
 170:main.c        ****             string_num = blocking_char();
 609              		.loc 1 170 0
 610 00ec FFF7FEFF 		bl	blocking_char
 611              	.LVL78:
 612 00f0 0446     		mov	r4, r0
 613              	.LVL79:
 171:main.c        ****             UART_PutChar(string_num);
 614              		.loc 1 171 0
 615 00f2 FFF7FEFF 		bl	UART_PutChar
 616              	.LVL80:
 172:main.c        ****             if (string_num == '1')      string_read_lcd(eeprom,0); //which array and which byte of 
 617              		.loc 1 172 0
 618 00f6 312C     		cmp	r4, #49
 619 00f8 04D1     		bne	.L41
 620              		.loc 1 172 0 is_stmt 0 discriminator 1
 621 00fa 0021     		movs	r1, #0
 622 00fc 3248     		ldr	r0, .L49+44
ARM GAS  C:\Users\dmarsch\AppData\Local\Temp\ccx5EtsC.s 			page 15


 623 00fe FFF7FEFF 		bl	string_read_lcd
 624              	.LVL81:
 625 0102 A4E7     		b	.L32
 626              	.L41:
 173:main.c        ****             else if (string_num == '2') string_read_lcd(eeprom,16);
 627              		.loc 1 173 0 is_stmt 1
 628 0104 322C     		cmp	r4, #50
 629 0106 04D1     		bne	.L42
 630              		.loc 1 173 0 is_stmt 0 discriminator 1
 631 0108 1021     		movs	r1, #16
 632 010a 2F48     		ldr	r0, .L49+44
 633 010c FFF7FEFF 		bl	string_read_lcd
 634              	.LVL82:
 635 0110 9DE7     		b	.L32
 636              	.L42:
 174:main.c        ****             else if (string_num == '3') string_read_lcd(eeprom,32);
 637              		.loc 1 174 0 is_stmt 1
 638 0112 332C     		cmp	r4, #51
 639 0114 04D1     		bne	.L43
 640              		.loc 1 174 0 is_stmt 0 discriminator 1
 641 0116 2021     		movs	r1, #32
 642 0118 2B48     		ldr	r0, .L49+44
 643 011a FFF7FEFF 		bl	string_read_lcd
 644              	.LVL83:
 645 011e 96E7     		b	.L32
 646              	.L43:
 175:main.c        ****             else if (string_num == '4') string_read_lcd(eeprom,48);
 647              		.loc 1 175 0 is_stmt 1
 648 0120 342C     		cmp	r4, #52
 649 0122 94D1     		bne	.L32
 650              		.loc 1 175 0 is_stmt 0 discriminator 1
 651 0124 3021     		movs	r1, #48
 652 0126 2848     		ldr	r0, .L49+44
 653 0128 FFF7FEFF 		bl	string_read_lcd
 654              	.LVL84:
 655 012c 8FE7     		b	.L32
 656              	.LVL85:
 657              	.L40:
 176:main.c        ****         }
 177:main.c        ****         else if (userInput == 'U')
 658              		.loc 1 177 0 is_stmt 1
 659 012e 552C     		cmp	r4, #85
 660 0130 2DD1     		bne	.L44
 178:main.c        ****         {
 179:main.c        ****             check = 0;
 661              		.loc 1 179 0
 662 0132 0022     		movs	r2, #0
 663 0134 1E4B     		ldr	r3, .L49+20
 664 0136 1A60     		str	r2, [r3]
 180:main.c        ****             UART_PutString("\r\nEnter string # (1 through 4): ");
 665              		.loc 1 180 0
 666 0138 1F48     		ldr	r0, .L49+28
 667 013a FFF7FEFF 		bl	UART_PutString
 668              	.LVL86:
 181:main.c        ****             string_num = blocking_char();
 669              		.loc 1 181 0
 670 013e FFF7FEFF 		bl	blocking_char
ARM GAS  C:\Users\dmarsch\AppData\Local\Temp\ccx5EtsC.s 			page 16


 671              	.LVL87:
 672 0142 0446     		mov	r4, r0
 673              	.LVL88:
 182:main.c        ****             UART_PutChar(string_num);
 674              		.loc 1 182 0
 675 0144 FFF7FEFF 		bl	UART_PutChar
 676              	.LVL89:
 183:main.c        ****             UART_PutChar(0x0D);                                     //put CR & LF for readability o
 677              		.loc 1 183 0
 678 0148 0D20     		movs	r0, #13
 679 014a FFF7FEFF 		bl	UART_PutChar
 680              	.LVL90:
 184:main.c        ****             UART_PutChar(0x0a);
 681              		.loc 1 184 0
 682 014e 0A20     		movs	r0, #10
 683 0150 FFF7FEFF 		bl	UART_PutChar
 684              	.LVL91:
 185:main.c        ****             if (string_num == '1')      string_read_uart(eeprom,0); //which array and which byte of
 685              		.loc 1 185 0
 686 0154 312C     		cmp	r4, #49
 687 0156 04D1     		bne	.L45
 688              		.loc 1 185 0 is_stmt 0 discriminator 1
 689 0158 0021     		movs	r1, #0
 690 015a 1B48     		ldr	r0, .L49+44
 691 015c FFF7FEFF 		bl	string_read_uart
 692              	.LVL92:
 693 0160 75E7     		b	.L32
 694              	.L45:
 186:main.c        ****             else if (string_num == '2') string_read_uart(eeprom,16);
 695              		.loc 1 186 0 is_stmt 1
 696 0162 322C     		cmp	r4, #50
 697 0164 04D1     		bne	.L46
 698              		.loc 1 186 0 is_stmt 0 discriminator 1
 699 0166 1021     		movs	r1, #16
 700 0168 1748     		ldr	r0, .L49+44
 701 016a FFF7FEFF 		bl	string_read_uart
 702              	.LVL93:
 703 016e 6EE7     		b	.L32
 704              	.L46:
 187:main.c        ****             else if (string_num == '3') string_read_uart(eeprom,32);
 705              		.loc 1 187 0 is_stmt 1
 706 0170 332C     		cmp	r4, #51
 707 0172 04D1     		bne	.L47
 708              		.loc 1 187 0 is_stmt 0 discriminator 1
 709 0174 2021     		movs	r1, #32
 710 0176 1448     		ldr	r0, .L49+44
 711 0178 FFF7FEFF 		bl	string_read_uart
 712              	.LVL94:
 713 017c 67E7     		b	.L32
 714              	.L47:
 188:main.c        ****             else if (string_num == '4') string_read_uart(eeprom,48);
 715              		.loc 1 188 0 is_stmt 1
 716 017e 342C     		cmp	r4, #52
 717 0180 7FF465AF 		bne	.L32
 718              		.loc 1 188 0 is_stmt 0 discriminator 1
 719 0184 3021     		movs	r1, #48
 720 0186 1048     		ldr	r0, .L49+44
ARM GAS  C:\Users\dmarsch\AppData\Local\Temp\ccx5EtsC.s 			page 17


 721 0188 FFF7FEFF 		bl	string_read_uart
 722              	.LVL95:
 723 018c 5FE7     		b	.L32
 724              	.LVL96:
 725              	.L44:
 189:main.c        ****         }
 190:main.c        ****         else 
 191:main.c        ****         {
 192:main.c        ****             UART_PutString("Invalid Input. Try Again.\r\n");
 726              		.loc 1 192 0 is_stmt 1
 727 018e 0F48     		ldr	r0, .L49+48
 728 0190 FFF7FEFF 		bl	UART_PutString
 729              	.LVL97:
 193:main.c        ****             check = 0;
 730              		.loc 1 193 0
 731 0194 0022     		movs	r2, #0
 732 0196 064B     		ldr	r3, .L49+20
 733 0198 1A60     		str	r2, [r3]
 734 019a 58E7     		b	.L32
 735              	.L50:
 736              		.align	2
 737              	.L49:
 738 019c 00000000 		.word	disp1
 739 01a0 00000000 		.word	disp2
 740 01a4 00000000 		.word	disp3
 741 01a8 00000000 		.word	disp4
 742 01ac 00000000 		.word	flag
 743 01b0 00000000 		.word	.LANCHOR0
 744 01b4 34000000 		.word	.LC2
 745 01b8 54000000 		.word	.LC3
 746 01bc 78000000 		.word	.LC4
 747 01c0 84000000 		.word	.LC5
 748 01c4 88000000 		.word	.LC6
 749 01c8 00000000 		.word	eeprom
 750 01cc A4000000 		.word	.LC7
 751              		.cfi_endproc
 752              	.LFE69:
 753              		.size	main, .-main
 754              		.comm	eeprom,17,4
 755              		.comm	disp4,17,4
 756              		.comm	disp3,17,4
 757              		.comm	disp2,17,4
 758              		.comm	disp1,17,4
 759              		.global	check
 760              		.section	.rodata.str1.4,"aMS",%progbits,1
 761              		.align	2
 762              	.LC0:
 763 0000 0D0A5468 		.ascii	"\015\012The strings have been cleared\000"
 763      65207374 
 763      72696E67 
 763      73206861 
 763      76652062 
 764              	.LC1:
 765 0020 0D0A456E 		.ascii	"\015\012Enter string: \000"
 765      74657220 
 765      73747269 
 765      6E673A20 
ARM GAS  C:\Users\dmarsch\AppData\Local\Temp\ccx5EtsC.s 			page 18


 765      00
 766 0031 000000   		.space	3
 767              	.LC2:
 768 0034 0D0A456E 		.ascii	"\015\012Enter (e) or Display (d)?: \000"
 768      74657220 
 768      28652920 
 768      6F722044 
 768      6973706C 
 769 0052 0000     		.space	2
 770              	.LC3:
 771 0054 0D0A456E 		.ascii	"\015\012Enter string # (1 through 4): \000"
 771      74657220 
 771      73747269 
 771      6E672023 
 771      20283120 
 772 0075 000000   		.space	3
 773              	.LC4:
 774 0078 0D0A456E 		.ascii	"\015\012Entered: \000"
 774      74657265 
 774      643A2000 
 775              	.LC5:
 776 0084 0D0A00   		.ascii	"\015\012\000"
 777 0087 00       		.space	1
 778              	.LC6:
 779 0088 0D0A4C43 		.ascii	"\015\012LCD (L) or UART (U)?: \000"
 779      4420284C 
 779      29206F72 
 779      20554152 
 779      54202855 
 780 00a1 000000   		.space	3
 781              	.LC7:
 782 00a4 496E7661 		.ascii	"Invalid Input. Try Again.\015\012\000"
 782      6C696420 
 782      496E7075 
 782      742E2054 
 782      72792041 
 783              		.bss
 784              		.align	2
 785              		.set	.LANCHOR0,. + 0
 786              		.type	check, %object
 787              		.size	check, 4
 788              	check:
 789 0000 00000000 		.space	4
 790              		.text
 791              	.Letext0:
 792              		.file 2 "c:\\program files (x86)\\cypress\\psoc creator\\4.2\\psoc creator\\import\\gnu\\arm\\5.4.
 793              		.file 3 "c:\\program files (x86)\\cypress\\psoc creator\\4.2\\psoc creator\\import\\gnu\\arm\\5.4.
 794              		.file 4 "Generated_Source\\PSoC5/cytypes.h"
 795              		.file 5 "Generated_Source\\PSoC5/core_cm3.h"
 796              		.file 6 "Generated_Source\\PSoC5/UART.h"
 797              		.file 7 "Generated_Source\\PSoC5/LCD.h"
 798              		.file 8 "Generated_Source\\PSoC5/EEPROM.h"
 799              		.file 9 "Generated_Source\\PSoC5/CLR_STR_ISR.h"
